{
  "_format": "hh-sol-artifact-1",
  "contractName": "LaunchpadFactory",
  "sourceName": "contracts/LaunchpadFactory.sol",
  "abi": [
    {
      "inputs": [
        {
          "internalType": "uint256",
          "name": "_initialLaunchFee",
          "type": "uint256"
        },
        {
          "internalType": "uint256",
          "name": "_platformFeeBps",
          "type": "uint256"
        },
        {
          "internalType": "address",
          "name": "_withdrawManager",
          "type": "address"
        }
      ],
      "stateMutability": "nonpayable",
      "type": "constructor"
    },
    {
      "anonymous": false,
      "inputs": [
        {
          "indexed": true,
          "internalType": "address",
          "name": "collection",
          "type": "address"
        },
        {
          "indexed": false,
          "internalType": "string",
          "name": "name",
          "type": "string"
        },
        {
          "indexed": false,
          "internalType": "string",
          "name": "symbol",
          "type": "string"
        },
        {
          "indexed": false,
          "internalType": "string",
          "name": "baseURI",
          "type": "string"
        },
        {
          "indexed": false,
          "internalType": "string",
          "name": "collectionURI",
          "type": "string"
        },
        {
          "indexed": false,
          "internalType": "uint256",
          "name": "maxSupply",
          "type": "uint256"
        },
        {
          "indexed": false,
          "internalType": "uint256",
          "name": "mintPrice",
          "type": "uint256"
        },
        {
          "indexed": false,
          "internalType": "uint96",
          "name": "royaltyBps",
          "type": "uint96"
        },
        {
          "indexed": false,
          "internalType": "address",
          "name": "royaltyRecipient",
          "type": "address"
        },
        {
          "indexed": false,
          "internalType": "uint256",
          "name": "mintStart",
          "type": "uint256"
        },
        {
          "indexed": false,
          "internalType": "uint256",
          "name": "mintEnd",
          "type": "uint256"
        }
      ],
      "name": "CollectionDeployedDetails",
      "type": "event"
    },
    {
      "anonymous": false,
      "inputs": [
        {
          "indexed": true,
          "internalType": "address",
          "name": "collection",
          "type": "address"
        },
        {
          "indexed": true,
          "internalType": "address",
          "name": "owner",
          "type": "address"
        },
        {
          "indexed": false,
          "internalType": "string",
          "name": "vanity",
          "type": "string"
        }
      ],
      "name": "CollectionDeployedMain",
      "type": "event"
    },
    {
      "anonymous": false,
      "inputs": [
        {
          "indexed": true,
          "internalType": "address",
          "name": "previousOwner",
          "type": "address"
        },
        {
          "indexed": true,
          "internalType": "address",
          "name": "newOwner",
          "type": "address"
        }
      ],
      "name": "OwnershipTransferred",
      "type": "event"
    },
    {
      "inputs": [
        {
          "internalType": "uint256",
          "name": "",
          "type": "uint256"
        }
      ],
      "name": "collections",
      "outputs": [
        {
          "internalType": "address",
          "name": "",
          "type": "address"
        }
      ],
      "stateMutability": "view",
      "type": "function"
    },
    {
      "inputs": [
        {
          "internalType": "string",
          "name": "name",
          "type": "string"
        },
        {
          "internalType": "string",
          "name": "symbol",
          "type": "string"
        },
        {
          "internalType": "string",
          "name": "baseURI",
          "type": "string"
        },
        {
          "internalType": "string",
          "name": "collectionURI",
          "type": "string"
        },
        {
          "internalType": "uint256",
          "name": "maxSupply",
          "type": "uint256"
        },
        {
          "internalType": "uint256",
          "name": "mintPrice",
          "type": "uint256"
        },
        {
          "internalType": "uint96",
          "name": "royaltyBps",
          "type": "uint96"
        },
        {
          "internalType": "address",
          "name": "royaltyRecipient",
          "type": "address"
        },
        {
          "internalType": "uint256",
          "name": "mintStart",
          "type": "uint256"
        },
        {
          "internalType": "uint256",
          "name": "mintEnd",
          "type": "uint256"
        },
        {
          "internalType": "string",
          "name": "vanity",
          "type": "string"
        }
      ],
      "name": "deployCollection",
      "outputs": [
        {
          "internalType": "address",
          "name": "",
          "type": "address"
        }
      ],
      "stateMutability": "payable",
      "type": "function"
    },
    {
      "inputs": [],
      "name": "getCollections",
      "outputs": [
        {
          "internalType": "address[]",
          "name": "",
          "type": "address[]"
        }
      ],
      "stateMutability": "view",
      "type": "function"
    },
    {
      "inputs": [],
      "name": "launchFee",
      "outputs": [
        {
          "internalType": "uint256",
          "name": "",
          "type": "uint256"
        }
      ],
      "stateMutability": "view",
      "type": "function"
    },
    {
      "inputs": [],
      "name": "owner",
      "outputs": [
        {
          "internalType": "address",
          "name": "",
          "type": "address"
        }
      ],
      "stateMutability": "view",
      "type": "function"
    },
    {
      "inputs": [],
      "name": "platformFeeBps",
      "outputs": [
        {
          "internalType": "uint256",
          "name": "",
          "type": "uint256"
        }
      ],
      "stateMutability": "view",
      "type": "function"
    },
    {
      "inputs": [],
      "name": "renounceOwnership",
      "outputs": [],
      "stateMutability": "nonpayable",
      "type": "function"
    },
    {
      "inputs": [
        {
          "internalType": "uint256",
          "name": "_fee",
          "type": "uint256"
        }
      ],
      "name": "setLaunchFee",
      "outputs": [],
      "stateMutability": "nonpayable",
      "type": "function"
    },
    {
      "inputs": [
        {
          "internalType": "uint256",
          "name": "_bps",
          "type": "uint256"
        }
      ],
      "name": "setPlatformFeeBps",
      "outputs": [],
      "stateMutability": "nonpayable",
      "type": "function"
    },
    {
      "inputs": [
        {
          "internalType": "address",
          "name": "newOwner",
          "type": "address"
        }
      ],
      "name": "transferOwnership",
      "outputs": [],
      "stateMutability": "nonpayable",
      "type": "function"
    },
    {
      "inputs": [
        {
          "internalType": "string",
          "name": "",
          "type": "string"
        }
      ],
      "name": "vanityToCollection",
      "outputs": [
        {
          "internalType": "address",
          "name": "",
          "type": "address"
        }
      ],
      "stateMutability": "view",
      "type": "function"
    },
    {
      "inputs": [],
      "name": "withdraw",
      "outputs": [],
      "stateMutability": "nonpayable",
      "type": "function"
    },
    {
      "inputs": [],
      "name": "withdrawManager",
      "outputs": [
        {
          "internalType": "address",
          "name": "",
          "type": "address"
        }
      ],
      "stateMutability": "view",
      "type": "function"
    }
  ],
  "bytecode": "0x608060405234801561001057600080fd5b506040516139d53803806139d583398101604081905261002f916100b5565b61003833610065565b600192909255600255600580546001600160a01b0319166001600160a01b039092169190911790556100fb565b600080546001600160a01b038381166001600160a01b0319831681178455604051919092169283917f8be0079c531659141344cd1fd0a4f28419497f9722a3daafe3b4186f6b6457e09190a35050565b6000806000606084860312156100ca57600080fd5b83516020850151604086015191945092506001600160a01b03811681146100f057600080fd5b809150509250925092565b6138cb8061010a6000396000f3fe6080604052600436106100c25760003560e01c8063715018a61161007f578063cf3cf57311610059578063cf3cf57314610208578063ec3e9da51461021e578063f2fde38b1461023e578063fdbda0ec1461025e57600080fd5b8063715018a6146101b55780638da5cb5b146101ca578063c580c942146101e857600080fd5b806304c6ed26146100c757806322dcd13e146101255780633ccfd60b1461014957806346e63586146101605780635313be2c1461018257806363886247146101a2575b600080fd5b3480156100d357600080fd5b506101086100e2366004610a3e565b80516020818301810180516004825292820191909301209152546001600160a01b031681565b6040516001600160a01b0390911681526020015b60405180910390f35b34801561013157600080fd5b5061013b60025481565b60405190815260200161011c565b34801561015557600080fd5b5061015e61027e565b005b34801561016c57600080fd5b506101756103ac565b60405161011c9190610a7b565b34801561018e57600080fd5b5061015e61019d366004610ac7565b61040e565b6101086101b0366004610b13565b61041b565b3480156101c157600080fd5b5061015e6107e1565b3480156101d657600080fd5b506000546001600160a01b0316610108565b3480156101f457600080fd5b5061015e610203366004610ac7565b6107f5565b34801561021457600080fd5b5061013b60015481565b34801561022a57600080fd5b50600554610108906001600160a01b031681565b34801561024a57600080fd5b5061015e610259366004610c4a565b61083f565b34801561026a57600080fd5b50610108610279366004610ac7565b6108b8565b6000546001600160a01b03163314806102a157506005546001600160a01b031633145b6102e35760405162461bcd60e51b815260206004820152600e60248201526d139bdd08185d5d1a1bdc9a5e995960921b60448201526064015b60405180910390fd5b478061031e5760405162461bcd60e51b815260206004820152600a6024820152694e6f2062616c616e636560b01b60448201526064016102da565b604051600090339083908381818185875af1925050503d8060008114610360576040519150601f19603f3d011682016040523d82523d6000602084013e610365565b606091505b50509050806103a85760405162461bcd60e51b815260206004820152600f60248201526e15da5d1a191c985dc819985a5b1959608a1b60448201526064016102da565b5050565b6060600380548060200260200160405190810160405280929190818152602001828054801561040457602002820191906000526020600020905b81546001600160a01b031681526001909101906020018083116103e6575b5050505050905090565b6104166108e2565b600155565b60006004825110156104625760405162461bcd60e51b815260206004820152601060248201526f15985b9a5d1e481d1bdbc81cda1bdc9d60821b60448201526064016102da565b60006001600160a01b031660048360405161047d9190610c90565b908152604051908190036020019020546001600160a01b0316146104d25760405162461bcd60e51b815260206004820152600c60248201526b2b30b734ba3c903a30b5b2b760a11b60448201526064016102da565b8383116105125760405162461bcd60e51b815260206004820152600e60248201526d496e76616c69642077696e646f7760901b60448201526064016102da565b6000881161054e5760405162461bcd60e51b81526020600482015260096024820152684e6f20737570706c7960b81b60448201526064016102da565b611388866001600160601b0316111561059c5760405162461bcd60e51b815260206004820152601060248201526f0a4def2c2d8e8f240e8dede40d0d2ced60831b60448201526064016102da565b6001600160a01b0385166105e65760405162461bcd60e51b8152602060048201526011602482015270149bde585b1d1e481c9958da5c1a595b9d607a1b60448201526064016102da565b6000612710600254898b6105fa9190610cc2565b6106049190610cc2565b61060e9190610cdf565b60015461061b9190610d01565b90508034101561066d5760405162461bcd60e51b815260206004820152601760248201527f496e73756666696369656e74206c61756e63682066656500000000000000000060448201526064016102da565b60008d8d8d8d8d8d8d8d8d8d336040516106869061098c565b61069a9b9a99989796959493929190610d40565b604051809103906000f0801580156106b6573d6000803e3d6000fd5b50600380546001810182556000919091527fc2575a0e9e593c00f959f8c92f12db2869c3395a3b0502d05e2516446f71f85b0180546001600160a01b0319166001600160a01b0383161790556040519091508190600490610718908790610c90565b90815260405190819003602001812080546001600160a01b039384166001600160a01b031990911617905533918316907fcd1d03cf8163ac0f1afb7f50fc581a26b256ea2b13744d41ff6f24ddb6f3c80d90610775908890610de1565b60405180910390a3806001600160a01b03167f6722a5b2401859c540cda23349cb61a5559d4fa44a47ce64cf34bbdb4563bbf78f8f8f8f8f8f8f8f8f8f6040516107c89a99989796959493929190610df4565b60405180910390a29d9c50505050505050505050505050565b6107e96108e2565b6107f3600061093c565b565b6107fd6108e2565b61271081111561083a5760405162461bcd60e51b81526020600482015260086024820152670a8dede40d0d2ced60c31b60448201526064016102da565b600255565b6108476108e2565b6001600160a01b0381166108ac5760405162461bcd60e51b815260206004820152602660248201527f4f776e61626c653a206e6577206f776e657220697320746865207a65726f206160448201526564647265737360d01b60648201526084016102da565b6108b58161093c565b50565b600381815481106108c857600080fd5b6000918252602090912001546001600160a01b0316905081565b6000546001600160a01b031633146107f35760405162461bcd60e51b815260206004820181905260248201527f4f776e61626c653a2063616c6c6572206973206e6f7420746865206f776e657260448201526064016102da565b600080546001600160a01b038381166001600160a01b0319831681178455604051919092169283917f8be0079c531659141344cd1fd0a4f28419497f9722a3daafe3b4186f6b6457e09190a35050565b612a0980610e8d83390190565b634e487b7160e01b600052604160045260246000fd5b600082601f8301126109c057600080fd5b813567ffffffffffffffff8111156109da576109da610999565b604051601f8201601f19908116603f0116810167ffffffffffffffff81118282101715610a0957610a09610999565b604052818152838201602001851015610a2157600080fd5b816020850160208301376000918101602001919091529392505050565b600060208284031215610a5057600080fd5b813567ffffffffffffffff811115610a6757600080fd5b610a73848285016109af565b949350505050565b602080825282518282018190526000918401906040840190835b81811015610abc5783516001600160a01b0316835260209384019390920191600101610a95565b509095945050505050565b600060208284031215610ad957600080fd5b5035919050565b80356001600160601b0381168114610af757600080fd5b919050565b80356001600160a01b0381168114610af757600080fd5b60008060008060008060008060008060006101608c8e031215610b3557600080fd5b8b3567ffffffffffffffff811115610b4c57600080fd5b610b588e828f016109af565b9b505060208c013567ffffffffffffffff811115610b7557600080fd5b610b818e828f016109af565b9a505060408c013567ffffffffffffffff811115610b9e57600080fd5b610baa8e828f016109af565b99505060608c013567ffffffffffffffff811115610bc757600080fd5b610bd38e828f016109af565b98505060808c0135965060a08c01359550610bf060c08d01610ae0565b9450610bfe60e08d01610afc565b93506101008c013592506101208c013591506101408c013567ffffffffffffffff811115610c2b57600080fd5b610c378e828f016109af565b9150509295989b509295989b9093969950565b600060208284031215610c5c57600080fd5b610c6582610afc565b9392505050565b60005b83811015610c87578181015183820152602001610c6f565b50506000910152565b60008251610ca2818460208701610c6c565b9190910192915050565b634e487b7160e01b600052601160045260246000fd5b8082028115828204841417610cd957610cd9610cac565b92915050565b600082610cfc57634e487b7160e01b600052601260045260246000fd5b500490565b80820180821115610cd957610cd9610cac565b60008151808452610d2c816020860160208601610c6c565b601f01601f19169290920160200192915050565b61016081526000610d5561016083018e610d14565b8281036020840152610d67818e610d14565b90508281036040840152610d7b818d610d14565b90508281036060840152610d8f818c610d14565b608084019a909a52505060a08101969096526001600160601b039490941660c08601526001600160a01b0392831660e08601526101008501919091526101208401521661014090910152949350505050565b602081526000610c656020830184610d14565b61014081526000610e0961014083018d610d14565b8281036020840152610e1b818d610d14565b90508281036040840152610e2f818c610d14565b90508281036060840152610e43818b610d14565b6080840199909952505060a08101959095526001600160601b039390931660c08501526001600160a01b039190911660e08401526101008301526101209091015294935050505056fe608060405234801561001057600080fd5b50604051612a09380380612a0983398101604081905261002f916102e0565b8a8a600061003d838261048a565b50600161004a828261048a565b50505061006361005e61019e60201b60201c565b6101a2565b6001600b55866100a65760405162461bcd60e51b81526020600482015260096024820152684e6f20737570706c7960b81b60448201526064015b60405180910390fd5b6001600160a01b0384166100f05760405162461bcd60e51b8152602060048201526011602482015270149bde585b1d1e481c9958da5c1a595b9d607a1b604482015260640161009d565b8282116101305760405162461bcd60e51b815260206004820152600e60248201526d496e76616c69642077696e646f7760901b604482015260640161009d565b600c61013c8a8261048a565b50600d610149898261048a565b50600e879055600f8690556001600160a01b0384166c01000000000000000000000000026001600160601b038616176010556011839055601282905561018e816101a2565b5050505050505050505050610548565b3390565b600a80546001600160a01b038381166001600160a01b0319831681179093556040519116919082907f8be0079c531659141344cd1fd0a4f28419497f9722a3daafe3b4186f6b6457e090600090a35050565b634e487b7160e01b600052604160045260246000fd5b600082601f83011261021b57600080fd5b81516001600160401b03811115610234576102346101f4565b604051601f8201601f19908116603f011681016001600160401b0381118282101715610262576102626101f4565b60405281815283820160200185101561027a57600080fd5b60005b828110156102995760208186018101518383018201520161027d565b506000918101602001919091529392505050565b80516001600160601b03811681146102c457600080fd5b919050565b80516001600160a01b03811681146102c457600080fd5b60008060008060008060008060008060006101608c8e03121561030257600080fd5b8b516001600160401b0381111561031857600080fd5b6103248e828f0161020a565b60208e0151909c5090506001600160401b0381111561034257600080fd5b61034e8e828f0161020a565b60408e0151909b5090506001600160401b0381111561036c57600080fd5b6103788e828f0161020a565b60608e0151909a5090506001600160401b0381111561039657600080fd5b6103a28e828f0161020a565b60808e015160a08f0151919a50985096506103c1905060c08d016102ad565b94506103cf60e08d016102c9565b6101008d01516101208e0151919550935091506103ef6101408d016102c9565b90509295989b509295989b9093969950565b600181811c9082168061041557607f821691505b60208210810361043557634e487b7160e01b600052602260045260246000fd5b50919050565b601f82111561048557806000526020600020601f840160051c810160208510156104625750805b601f840160051c820191505b81811015610482576000815560010161046e565b50505b505050565b81516001600160401b038111156104a3576104a36101f4565b6104b7816104b18454610401565b8461043b565b6020601f8211600181146104eb57600083156104d35750848201515b600019600385901b1c1916600184901b178455610482565b600084815260208120601f198516915b8281101561051b57878501518255602094850194600190920191016104fb565b50848210156105395786840151600019600387901b60f8161c191681555b50505050600190811b01905550565b6124b2806105576000396000f3fe6080604052600436106102255760003560e01c80636817c76c11610123578063a22cb465116100ab578063d5abeb011161006f578063d5abeb0114610640578063e8a3d48514610656578063e985e9c51461066b578063ea2b4ab2146106b4578063f2fde38b146106ca57600080fd5b8063a22cb46514610593578063a5097ebf146105b3578063b88d4fde146105c8578063c63adb2b146105e8578063c87b56dd1461062057600080fd5b80638091f3bf116100f25780638091f3bf1461050b5780638da5cb5b1461052557806395d89b41146105435780639ce93edf14610558578063a0712d681461058057600080fd5b80636817c76c146104ab5780636c0360eb146104c157806370a08231146104d6578063715018a6146104f657600080fd5b80632f745c59116101b15780634f6ccce7116101755780634f6ccce71461042157806355f804b314610441578063613f8d6b1461046157806361e0d834146104765780636352211e1461048b57600080fd5b80632f745c591461038f5780633ccfd60b146103af57806342842e0e146103c45780634c00de82146103e45780634f02c4201461040b57600080fd5b806318160ddd116101f857806318160ddd146102db57806323b872dd146102fa578063255e46851461031a5780632639f460146103305780632a55205a1461035057600080fd5b806301ffc9a71461022a57806306fdde031461025f578063081812fc14610281578063095ea7b3146102b9575b600080fd5b34801561023657600080fd5b5061024a610245366004611d8a565b6106ea565b60405190151581526020015b60405180910390f35b34801561026b57600080fd5b50610274610715565b6040516102569190611dfe565b34801561028d57600080fd5b506102a161029c366004611e11565b6107a7565b6040516001600160a01b039091168152602001610256565b3480156102c557600080fd5b506102d96102d4366004611e46565b6107ce565b005b3480156102e757600080fd5b506008545b604051908152602001610256565b34801561030657600080fd5b506102d9610315366004611e70565b6108e8565b34801561032657600080fd5b506102ec60115481565b34801561033c57600080fd5b506102d961034b366004611f3d565b610919565b34801561035c57600080fd5b5061037061036b366004611f86565b610931565b604080516001600160a01b039093168352602083019190915201610256565b34801561039b57600080fd5b506102ec6103aa366004611e46565b61097a565b3480156103bb57600080fd5b506102d9610a10565b3480156103d057600080fd5b506102d96103df366004611e70565b610bad565b3480156103f057600080fd5b506010546102a190600160601b90046001600160a01b031681565b34801561041757600080fd5b506102ec60135481565b34801561042d57600080fd5b506102ec61043c366004611e11565b610bc8565b34801561044d57600080fd5b506102d961045c366004611f3d565b610c5b565b34801561046d57600080fd5b50600f546102ec565b34801561048257600080fd5b50600e546102ec565b34801561049757600080fd5b506102a16104a6366004611e11565b610c6f565b3480156104b757600080fd5b506102ec600f5481565b3480156104cd57600080fd5b50610274610ccf565b3480156104e257600080fd5b506102ec6104f1366004611fa8565b610d5d565b34801561050257600080fd5b506102d9610de3565b34801561051757600080fd5b5060145461024a9060ff1681565b34801561053157600080fd5b50600a546001600160a01b03166102a1565b34801561054f57600080fd5b50610274610df5565b34801561056457600080fd5b5060115460125460408051928352602083019190915201610256565b6102d961058e366004611e11565b610e04565b34801561059f57600080fd5b506102d96105ae366004611fc3565b610fc4565b3480156105bf57600080fd5b50610274610fcf565b3480156105d457600080fd5b506102d96105e3366004611fff565b610fdc565b3480156105f457600080fd5b50601054610608906001600160601b031681565b6040516001600160601b039091168152602001610256565b34801561062c57600080fd5b5061027461063b366004611e11565b611014565b34801561064c57600080fd5b506102ec600e5481565b34801561066257600080fd5b506102746110a1565b34801561067757600080fd5b5061024a61068636600461207b565b6001600160a01b03918216600090815260056020908152604080832093909416825291909152205460ff1690565b3480156106c057600080fd5b506102ec60125481565b3480156106d657600080fd5b506102d96106e5366004611fa8565b6110b0565b60006001600160e01b0319821663152a902d60e11b148061070f575061070f82611126565b92915050565b606060008054610724906120ae565b80601f0160208091040260200160405190810160405280929190818152602001828054610750906120ae565b801561079d5780601f106107725761010080835404028352916020019161079d565b820191906000526020600020905b81548152906001019060200180831161078057829003601f168201915b5050505050905090565b60006107b28261114b565b506000908152600460205260409020546001600160a01b031690565b60006107d982610c6f565b9050806001600160a01b0316836001600160a01b03160361084b5760405162461bcd60e51b815260206004820152602160248201527f4552433732313a20617070726f76616c20746f2063757272656e74206f776e656044820152603960f91b60648201526084015b60405180910390fd5b336001600160a01b038216148061086757506108678133610686565b6108d95760405162461bcd60e51b815260206004820152603d60248201527f4552433732313a20617070726f76652063616c6c6572206973206e6f7420746f60448201527f6b656e206f776e6572206f7220617070726f76656420666f7220616c6c0000006064820152608401610842565b6108e383836111aa565b505050565b6108f23382611218565b61090e5760405162461bcd60e51b8152600401610842906120e8565b6108e3838383611297565b610921611408565b600d61092d828261217c565b5050565b6010546000908190819061271090610952906001600160601b031686612251565b61095c9190612268565b601054600160601b90046001600160a01b0316969095509350505050565b600061098583610d5d565b82106109e75760405162461bcd60e51b815260206004820152602b60248201527f455243373231456e756d657261626c653a206f776e657220696e646578206f7560448201526a74206f6620626f756e647360a81b6064820152608401610842565b506001600160a01b03919091166000908152600660209081526040808320938352929052205490565b610a18611408565b610a20611462565b600e54601354610a3190600a612251565b1015610a705760405162461bcd60e51b815260206004820152600e60248201526d0c4c09481b9bdd081b5a5b9d195960921b6044820152606401610842565b4780610aab5760405162461bcd60e51b815260206004820152600a6024820152694e6f2062616c616e636560b01b6044820152606401610842565b6000610abf600a546001600160a01b031690565b6001600160a01b03168260405160006040518083038185875af1925050503d8060008114610b09576040519150601f19603f3d011682016040523d82523d6000602084013e610b0e565b606091505b5050905080610b515760405162461bcd60e51b815260206004820152600f60248201526e15da5d1a191c985dc819985a5b1959608a1b6044820152606401610842565b600a546001600160a01b03166001600160a01b03167f884edad9ce6fa2440d8a54cc123490eb96d2768479d49ff9c7366125a942436483604051610b9791815260200190565b60405180910390a25050610bab6001600b55565b565b6108e383838360405180602001604052806000815250610fdc565b6000610bd360085490565b8210610c365760405162461bcd60e51b815260206004820152602c60248201527f455243373231456e756d657261626c653a20676c6f62616c20696e646578206f60448201526b7574206f6620626f756e647360a01b6064820152608401610842565b60088281548110610c4957610c4961228a565b90600052602060002001549050919050565b610c63611408565b600c61092d828261217c565b6000818152600260205260408120546001600160a01b03168061070f5760405162461bcd60e51b8152602060048201526018602482015277115490cdcc8c4e881a5b9d985b1a59081d1bdad95b88125160421b6044820152606401610842565b600c8054610cdc906120ae565b80601f0160208091040260200160405190810160405280929190818152602001828054610d08906120ae565b8015610d555780601f10610d2a57610100808354040283529160200191610d55565b820191906000526020600020905b815481529060010190602001808311610d3857829003601f168201915b505050505081565b60006001600160a01b038216610dc75760405162461bcd60e51b815260206004820152602960248201527f4552433732313a2061646472657373207a65726f206973206e6f7420612076616044820152683634b21037bbb732b960b91b6064820152608401610842565b506001600160a01b031660009081526003602052604090205490565b610deb611408565b610bab60006114bb565b606060018054610724906120ae565b610e0c611462565b6011544210158015610e2057506012544211155b610e615760405162461bcd60e51b81526020600482015260126024820152714e6f7420696e206d696e742077696e646f7760701b6044820152606401610842565b60008111610e9f5760405162461bcd60e51b815260206004820152600b60248201526a16995c9bc8185b5bdd5b9d60aa1b6044820152606401610842565b600e5481601354610eb091906122a0565b1115610eef5760405162461bcd60e51b815260206004820152600e60248201526d4578636565647320737570706c7960901b6044820152606401610842565b80600f54610efd9190612251565b341015610f435760405162461bcd60e51b8152602060048201526014602482015273125b9cdd59999a58da595b9d081c185e5b595b9d60621b6044820152606401610842565b60005b81811015610fb65760006013546001610f5f91906122a0565b9050610f6b338261150d565b604051819033907f0f6798a560793a54c3bcfe86a93cde1e73087d944c0ea20544137d412139688590600090a360138054906000610fa8836122b3565b909155505050600101610f46565b50610fc16001600b55565b50565b61092d338383611527565b600d8054610cdc906120ae565b610fe63383611218565b6110025760405162461bcd60e51b8152600401610842906120e8565b61100e848484846115f5565b50505050565b6000818152600260205260409020546060906001600160a01b031661106f5760405162461bcd60e51b81526020600482015260116024820152702737b732bc34b9ba32b73a103a37b5b2b760791b6044820152606401610842565b600c61107a83611628565b60405160200161108b9291906122cc565b6040516020818303038152906040529050919050565b6060600d8054610724906120ae565b6110b8611408565b6001600160a01b03811661111d5760405162461bcd60e51b815260206004820152602660248201527f4f776e61626c653a206e6577206f776e657220697320746865207a65726f206160448201526564647265737360d01b6064820152608401610842565b610fc1816114bb565b60006001600160e01b0319821663780e9d6360e01b148061070f575061070f826116bb565b6000818152600260205260409020546001600160a01b0316610fc15760405162461bcd60e51b8152602060048201526018602482015277115490cdcc8c4e881a5b9d985b1a59081d1bdad95b88125160421b6044820152606401610842565b600081815260046020526040902080546001600160a01b0319166001600160a01b03841690811790915581906111df82610c6f565b6001600160a01b03167f8c5be1e5ebec7d5bd14f71427d1e84f3dd0314c0f7b2291e5b200ac8c7c3b92560405160405180910390a45050565b60008061122483610c6f565b9050806001600160a01b0316846001600160a01b0316148061126b57506001600160a01b0380821660009081526005602090815260408083209388168352929052205460ff165b8061128f5750836001600160a01b0316611284846107a7565b6001600160a01b0316145b949350505050565b826001600160a01b03166112aa82610c6f565b6001600160a01b0316146112d05760405162461bcd60e51b815260040161084290612362565b6001600160a01b0382166113325760405162461bcd60e51b8152602060048201526024808201527f4552433732313a207472616e7366657220746f20746865207a65726f206164646044820152637265737360e01b6064820152608401610842565b61133f838383600161170b565b826001600160a01b031661135282610c6f565b6001600160a01b0316146113785760405162461bcd60e51b815260040161084290612362565b600081815260046020908152604080832080546001600160a01b03199081169091556001600160a01b0387811680865260038552838620805460001901905590871680865283862080546001019055868652600290945282852080549092168417909155905184937fddf252ad1be2c89b69c2b068fc378daa952ba7f163c4a11628f55a4df523b3ef91a4505050565b600a546001600160a01b03163314610bab5760405162461bcd60e51b815260206004820181905260248201527f4f776e61626c653a2063616c6c6572206973206e6f7420746865206f776e65726044820152606401610842565b6002600b54036114b45760405162461bcd60e51b815260206004820152601f60248201527f5265656e7472616e637947756172643a207265656e7472616e742063616c6c006044820152606401610842565b6002600b55565b600a80546001600160a01b038381166001600160a01b0319831681179093556040519116919082907f8be0079c531659141344cd1fd0a4f28419497f9722a3daafe3b4186f6b6457e090600090a35050565b61092d82826040518060200160405280600081525061183f565b816001600160a01b0316836001600160a01b0316036115885760405162461bcd60e51b815260206004820152601960248201527f4552433732313a20617070726f766520746f2063616c6c6572000000000000006044820152606401610842565b6001600160a01b03838116600081815260056020908152604080832094871680845294825291829020805460ff191686151590811790915591519182527f17307eab39ab6107e8899845ad3d59bd9653f200f220920489ca2b5937696c31910160405180910390a3505050565b611600848484611297565b61160c84848484611872565b61100e5760405162461bcd60e51b8152600401610842906123a7565b6060600061163583611973565b600101905060008167ffffffffffffffff81111561165557611655611ead565b6040519080825280601f01601f19166020018201604052801561167f576020820181803683370190505b5090508181016020015b600019016f181899199a1a9b1b9c1cb0b131b232b360811b600a86061a8153600a850494508461168957509392505050565b60006001600160e01b031982166380ac58cd60e01b14806116ec57506001600160e01b03198216635b5e139f60e01b145b8061070f57506301ffc9a760e01b6001600160e01b031983161461070f565b600181111561177a5760405162461bcd60e51b815260206004820152603560248201527f455243373231456e756d657261626c653a20636f6e7365637574697665207472604482015274185b9cd9995c9cc81b9bdd081cdd5c1c1bdc9d1959605a1b6064820152608401610842565b816001600160a01b0385166117d6576117d181600880546000838152600960205260408120829055600182018355919091527ff3f7a9fe364faab93b216da50a3214154f22a0a2b415b23a84c8169e8b636ee30155565b6117f9565b836001600160a01b0316856001600160a01b0316146117f9576117f98582611a4b565b6001600160a01b0384166118155761181081611ae8565b611838565b846001600160a01b0316846001600160a01b031614611838576118388482611b97565b5050505050565b6118498383611bdb565b6118566000848484611872565b6108e35760405162461bcd60e51b8152600401610842906123a7565b60006001600160a01b0384163b1561196857604051630a85bd0160e11b81526001600160a01b0385169063150b7a02906118b69033908990889088906004016123f9565b6020604051808303816000875af19250505080156118f1575060408051601f3d908101601f191682019092526118ee91810190612436565b60015b61194e573d80801561191f576040519150601f19603f3d011682016040523d82523d6000602084013e611924565b606091505b5080516000036119465760405162461bcd60e51b8152600401610842906123a7565b805181602001fd5b6001600160e01b031916630a85bd0160e11b14905061128f565b506001949350505050565b60008072184f03e93ff9f4daa797ed6e38ed64bf6a1f0160401b83106119b25772184f03e93ff9f4daa797ed6e38ed64bf6a1f0160401b830492506040015b6d04ee2d6d415b85acef810000000083106119de576d04ee2d6d415b85acef8100000000830492506020015b662386f26fc1000083106119fc57662386f26fc10000830492506010015b6305f5e1008310611a14576305f5e100830492506008015b6127108310611a2857612710830492506004015b60648310611a3a576064830492506002015b600a831061070f5760010192915050565b60006001611a5884610d5d565b611a629190612453565b600083815260076020526040902054909150808214611ab5576001600160a01b03841660009081526006602090815260408083208584528252808320548484528184208190558352600790915290208190555b5060009182526007602090815260408084208490556001600160a01b039094168352600681528383209183525290812055565b600854600090611afa90600190612453565b60008381526009602052604081205460088054939450909284908110611b2257611b2261228a565b906000526020600020015490508060088381548110611b4357611b4361228a565b6000918252602080832090910192909255828152600990915260408082208490558582528120556008805480611b7b57611b7b612466565b6001900381819060005260206000200160009055905550505050565b6000611ba283610d5d565b6001600160a01b039093166000908152600660209081526040808320868452825280832085905593825260079052919091209190915550565b6001600160a01b038216611c315760405162461bcd60e51b815260206004820181905260248201527f4552433732313a206d696e7420746f20746865207a65726f20616464726573736044820152606401610842565b6000818152600260205260409020546001600160a01b031615611c965760405162461bcd60e51b815260206004820152601c60248201527f4552433732313a20746f6b656e20616c7265616479206d696e746564000000006044820152606401610842565b611ca460008383600161170b565b6000818152600260205260409020546001600160a01b031615611d095760405162461bcd60e51b815260206004820152601c60248201527f4552433732313a20746f6b656e20616c7265616479206d696e746564000000006044820152606401610842565b6001600160a01b038216600081815260036020908152604080832080546001019055848352600290915280822080546001600160a01b0319168417905551839291907fddf252ad1be2c89b69c2b068fc378daa952ba7f163c4a11628f55a4df523b3ef908290a45050565b6001600160e01b031981168114610fc157600080fd5b600060208284031215611d9c57600080fd5b8135611da781611d74565b9392505050565b60005b83811015611dc9578181015183820152602001611db1565b50506000910152565b60008151808452611dea816020860160208601611dae565b601f01601f19169290920160200192915050565b602081526000611da76020830184611dd2565b600060208284031215611e2357600080fd5b5035919050565b80356001600160a01b0381168114611e4157600080fd5b919050565b60008060408385031215611e5957600080fd5b611e6283611e2a565b946020939093013593505050565b600080600060608486031215611e8557600080fd5b611e8e84611e2a565b9250611e9c60208501611e2a565b929592945050506040919091013590565b634e487b7160e01b600052604160045260246000fd5b60008067ffffffffffffffff841115611ede57611ede611ead565b50604051601f19601f85018116603f0116810181811067ffffffffffffffff82111715611f0d57611f0d611ead565b604052838152905080828401851015611f2557600080fd5b83836020830137600060208583010152509392505050565b600060208284031215611f4f57600080fd5b813567ffffffffffffffff811115611f6657600080fd5b8201601f81018413611f7757600080fd5b61128f84823560208401611ec3565b60008060408385031215611f9957600080fd5b50508035926020909101359150565b600060208284031215611fba57600080fd5b611da782611e2a565b60008060408385031215611fd657600080fd5b611fdf83611e2a565b915060208301358015158114611ff457600080fd5b809150509250929050565b6000806000806080858703121561201557600080fd5b61201e85611e2a565b935061202c60208601611e2a565b925060408501359150606085013567ffffffffffffffff81111561204f57600080fd5b8501601f8101871361206057600080fd5b61206f87823560208401611ec3565b91505092959194509250565b6000806040838503121561208e57600080fd5b61209783611e2a565b91506120a560208401611e2a565b90509250929050565b600181811c908216806120c257607f821691505b6020821081036120e257634e487b7160e01b600052602260045260246000fd5b50919050565b6020808252602d908201527f4552433732313a2063616c6c6572206973206e6f7420746f6b656e206f776e6560408201526c1c881bdc88185c1c1c9bdd9959609a1b606082015260800190565b601f8211156108e357806000526020600020601f840160051c8101602085101561215c5750805b601f840160051c820191505b818110156118385760008155600101612168565b815167ffffffffffffffff81111561219657612196611ead565b6121aa816121a484546120ae565b84612135565b6020601f8211600181146121de57600083156121c65750848201515b600019600385901b1c1916600184901b178455611838565b600084815260208120601f198516915b8281101561220e57878501518255602094850194600190920191016121ee565b508482101561222c5786840151600019600387901b60f8161c191681555b50505050600190811b01905550565b634e487b7160e01b600052601160045260246000fd5b808202811582820484141761070f5761070f61223b565b60008261228557634e487b7160e01b600052601260045260246000fd5b500490565b634e487b7160e01b600052603260045260246000fd5b8082018082111561070f5761070f61223b565b6000600182016122c5576122c561223b565b5060010190565b60008084546122da816120ae565b6001821680156122f1576001811461230657612336565b60ff1983168652811515820286019350612336565b87600052602060002060005b8381101561232e57815488820152600190910190602001612312565b505081860193505b5050508351612349818360208801611dae565b64173539b7b760d91b9101908152600501949350505050565b60208082526025908201527f4552433732313a207472616e736665722066726f6d20696e636f72726563742060408201526437bbb732b960d91b606082015260800190565b60208082526032908201527f4552433732313a207472616e7366657220746f206e6f6e20455243373231526560408201527131b2b4bb32b91034b6b83632b6b2b73a32b960711b606082015260800190565b6001600160a01b038581168252841660208201526040810183905260806060820181905260009061242c90830184611dd2565b9695505050505050565b60006020828403121561244857600080fd5b8151611da781611d74565b8181038181111561070f5761070f61223b565b634e487b7160e01b600052603160045260246000fdfea2646970667358221220c5e1d18ca3ef325dd770a7ea677ccae40886a98e00849bf2464fef6b5442548e64736f6c634300081c0033a2646970667358221220bd21875e77425c60117fd48bebe4fe0bba7a52f42e8785b34a808eae517850d964736f6c634300081c0033",
  "linkReferences": {},
  "deployedLinkReferences": {}
}