{
  "_format": "hh-sol-artifact-1",
  "contractName": "LiliPadFactory",
  "sourceName": "contracts/LiliPadFactory.sol",
  "abi": [
    {
      "inputs": [
        {
          "internalType": "uint256",
          "name": "_initialLaunchFee",
          "type": "uint256"
        },
        {
          "internalType": "uint256",
          "name": "_platformFeeBps",
          "type": "uint256"
        },
        {
          "internalType": "address",
          "name": "_withdrawManager",
          "type": "address"
        },
        {
          "internalType": "address",
          "name": "_stakingContract",
          "type": "address"
        }
      ],
      "stateMutability": "nonpayable",
      "type": "constructor"
    },
    {
      "anonymous": false,
      "inputs": [
        {
          "indexed": true,
          "internalType": "address",
          "name": "collection",
          "type": "address"
        },
        {
          "indexed": false,
          "internalType": "string",
          "name": "name",
          "type": "string"
        },
        {
          "indexed": false,
          "internalType": "string",
          "name": "symbol",
          "type": "string"
        },
        {
          "indexed": false,
          "internalType": "string",
          "name": "baseURI",
          "type": "string"
        },
        {
          "indexed": false,
          "internalType": "string",
          "name": "collectionURI",
          "type": "string"
        },
        {
          "indexed": false,
          "internalType": "uint256",
          "name": "maxSupply",
          "type": "uint256"
        },
        {
          "indexed": false,
          "internalType": "uint256",
          "name": "mintPrice",
          "type": "uint256"
        },
        {
          "indexed": false,
          "internalType": "uint96",
          "name": "royaltyBps",
          "type": "uint96"
        },
        {
          "indexed": false,
          "internalType": "address",
          "name": "royaltyRecipient",
          "type": "address"
        },
        {
          "indexed": false,
          "internalType": "uint256",
          "name": "mintStart",
          "type": "uint256"
        },
        {
          "indexed": false,
          "internalType": "uint256",
          "name": "mintEnd",
          "type": "uint256"
        },
        {
          "indexed": false,
          "internalType": "address",
          "name": "customMintToken",
          "type": "address"
        },
        {
          "indexed": false,
          "internalType": "uint256",
          "name": "customMintPrice",
          "type": "uint256"
        },
        {
          "indexed": false,
          "internalType": "uint256",
          "name": "discountBps",
          "type": "uint256"
        },
        {
          "indexed": false,
          "internalType": "uint256",
          "name": "finalFeePaid",
          "type": "uint256"
        }
      ],
      "name": "CollectionDeployedDetails",
      "type": "event"
    },
    {
      "anonymous": false,
      "inputs": [
        {
          "indexed": true,
          "internalType": "address",
          "name": "collection",
          "type": "address"
        },
        {
          "indexed": true,
          "internalType": "address",
          "name": "owner",
          "type": "address"
        },
        {
          "indexed": false,
          "internalType": "string",
          "name": "vanity",
          "type": "string"
        }
      ],
      "name": "CollectionDeployedMain",
      "type": "event"
    },
    {
      "anonymous": false,
      "inputs": [
        {
          "indexed": true,
          "internalType": "address",
          "name": "previousOwner",
          "type": "address"
        },
        {
          "indexed": true,
          "internalType": "address",
          "name": "newOwner",
          "type": "address"
        }
      ],
      "name": "OwnershipTransferred",
      "type": "event"
    },
    {
      "inputs": [],
      "name": "LILI_TOKEN",
      "outputs": [
        {
          "internalType": "address",
          "name": "",
          "type": "address"
        }
      ],
      "stateMutability": "view",
      "type": "function"
    },
    {
      "inputs": [
        {
          "internalType": "uint256",
          "name": "",
          "type": "uint256"
        }
      ],
      "name": "collections",
      "outputs": [
        {
          "internalType": "address",
          "name": "",
          "type": "address"
        }
      ],
      "stateMutability": "view",
      "type": "function"
    },
    {
      "inputs": [
        {
          "internalType": "string",
          "name": "name",
          "type": "string"
        },
        {
          "internalType": "string",
          "name": "symbol",
          "type": "string"
        },
        {
          "internalType": "string",
          "name": "baseURI",
          "type": "string"
        },
        {
          "internalType": "string",
          "name": "collectionURI",
          "type": "string"
        },
        {
          "internalType": "uint256",
          "name": "maxSupply",
          "type": "uint256"
        },
        {
          "internalType": "uint256",
          "name": "mintPrice",
          "type": "uint256"
        },
        {
          "internalType": "uint96",
          "name": "royaltyBps",
          "type": "uint96"
        },
        {
          "internalType": "address",
          "name": "royaltyRecipient",
          "type": "address"
        },
        {
          "internalType": "uint256",
          "name": "mintStart",
          "type": "uint256"
        },
        {
          "internalType": "uint256",
          "name": "mintEnd",
          "type": "uint256"
        },
        {
          "internalType": "string",
          "name": "vanity",
          "type": "string"
        },
        {
          "internalType": "address",
          "name": "customMintToken",
          "type": "address"
        },
        {
          "internalType": "uint256",
          "name": "customMintPrice",
          "type": "uint256"
        }
      ],
      "name": "deployCollection",
      "outputs": [
        {
          "internalType": "address",
          "name": "",
          "type": "address"
        }
      ],
      "stateMutability": "payable",
      "type": "function"
    },
    {
      "inputs": [],
      "name": "getCollections",
      "outputs": [
        {
          "internalType": "address[]",
          "name": "",
          "type": "address[]"
        }
      ],
      "stateMutability": "view",
      "type": "function"
    },
    {
      "inputs": [],
      "name": "launchFee",
      "outputs": [
        {
          "internalType": "uint256",
          "name": "",
          "type": "uint256"
        }
      ],
      "stateMutability": "view",
      "type": "function"
    },
    {
      "inputs": [],
      "name": "owner",
      "outputs": [
        {
          "internalType": "address",
          "name": "",
          "type": "address"
        }
      ],
      "stateMutability": "view",
      "type": "function"
    },
    {
      "inputs": [],
      "name": "platformFeeBps",
      "outputs": [
        {
          "internalType": "uint256",
          "name": "",
          "type": "uint256"
        }
      ],
      "stateMutability": "view",
      "type": "function"
    },
    {
      "inputs": [],
      "name": "renounceOwnership",
      "outputs": [],
      "stateMutability": "nonpayable",
      "type": "function"
    },
    {
      "inputs": [
        {
          "internalType": "uint256",
          "name": "_fee",
          "type": "uint256"
        }
      ],
      "name": "setLaunchFee",
      "outputs": [],
      "stateMutability": "nonpayable",
      "type": "function"
    },
    {
      "inputs": [
        {
          "internalType": "uint256",
          "name": "_bps",
          "type": "uint256"
        }
      ],
      "name": "setPlatformFeeBps",
      "outputs": [],
      "stateMutability": "nonpayable",
      "type": "function"
    },
    {
      "inputs": [
        {
          "internalType": "address",
          "name": "_stakingContract",
          "type": "address"
        }
      ],
      "name": "setStakingContract",
      "outputs": [],
      "stateMutability": "nonpayable",
      "type": "function"
    },
    {
      "inputs": [],
      "name": "stakingContract",
      "outputs": [
        {
          "internalType": "contract ILiliPadStaking",
          "name": "",
          "type": "address"
        }
      ],
      "stateMutability": "view",
      "type": "function"
    },
    {
      "inputs": [
        {
          "internalType": "address",
          "name": "newOwner",
          "type": "address"
        }
      ],
      "name": "transferOwnership",
      "outputs": [],
      "stateMutability": "nonpayable",
      "type": "function"
    },
    {
      "inputs": [
        {
          "internalType": "string",
          "name": "",
          "type": "string"
        }
      ],
      "name": "vanityToCollection",
      "outputs": [
        {
          "internalType": "address",
          "name": "",
          "type": "address"
        }
      ],
      "stateMutability": "view",
      "type": "function"
    },
    {
      "inputs": [],
      "name": "withdraw",
      "outputs": [],
      "stateMutability": "nonpayable",
      "type": "function"
    },
    {
      "inputs": [],
      "name": "withdrawManager",
      "outputs": [
        {
          "internalType": "address",
          "name": "",
          "type": "address"
        }
      ],
      "stateMutability": "view",
      "type": "function"
    }
  ],
  "bytecode": "0x6080346100d057601f613fdd38819003918201601f19168301916001600160401b038311848410176100d5578084926080946040528339810103126100d05780519060208101519161005f6060610058604085016100eb565b93016100eb565b60005460018060a01b03199333858316176000556040519560018060a01b03948593843391167f8be0079c531659141344cd1fd0a4f28419497f9722a3daafe3b4186f6b6457e0600080a36001556002551683600554161760055516906006541617600655613edd90816101008239f35b600080fd5b634e487b7160e01b600052604160045260246000fd5b51906001600160a01b03821682036100d05756fe608060405260043610156200001357600080fd5b60003560e01c806304c6ed261462000ddc57806322dcd13e1462000dbc5780633ccfd60b1462000c8e5780633fdd8ca31462000c5d57806346e635861462000b8d5780635313be2c1462000b68578063715018a61462000b0b578063819400c8146200033d5780638da5cb5b14620003125780639dd373b914620002c9578063c580c942146200026a578063cf3cf573146200024a578063ec3e9da5146200021f578063ee99205c14620001f4578063f2fde38b14620001295763fdbda0ec14620000dd57600080fd5b3462000124576020366003190112620001245760043560035481101562000124576200010b60209162000f15565b905460405160039290921b1c6001600160a01b03168152f35b600080fd5b346200012457602036600319011262000124576200014662000efe565b6200015062000f63565b6001600160a01b03908116908115620001a057600054826001600160601b0360a01b821617600055167f8be0079c531659141344cd1fd0a4f28419497f9722a3daafe3b4186f6b6457e0600080a3005b60405162461bcd60e51b815260206004820152602660248201527f4f776e61626c653a206e6577206f776e657220697320746865207a65726f206160448201526564647265737360d01b6064820152608490fd5b346200012457600036600319011262000124576006546040516001600160a01b039091168152602090f35b346200012457600036600319011262000124576005546040516001600160a01b039091168152602090f35b346200012457600036600319011262000124576020600154604051908152f35b346200012457602036600319011262000124576004356200028a62000f63565b61271081116200029957600255005b60405162461bcd60e51b81526020600482015260086024820152670a8dede40d0d2ced60c31b6044820152606490fd5b34620001245760203660031901126200012457620002e662000efe565b620002f062000f63565b600680546001600160a01b0319166001600160a01b0392909216919091179055005b346200012457600036600319011262000124576000546040516001600160a01b039091168152602090f35b6101a0366003190112620001245760043567ffffffffffffffff811162000124576200036e90369060040162000e8c565b60243567ffffffffffffffff811162000124576200039190369060040162000e8c565b60443567ffffffffffffffff81116200012457620003b490369060040162000e8c565b9160643567ffffffffffffffff81116200012457620003d890369060040162000e8c565b9260c435916001600160601b0383168303620001245760e4356001600160a01b038116810362000124576101443567ffffffffffffffff811162000124576200042690369060040162000e8c565b90610164356001600160a01b03811681036200012457600483511062000ad35760405183516200045b81836020880162000ed9565b60049082019081528190036020019020546001600160a01b031662000a9f576101043561012435111562000a69576084351562000a38576113886001600160601b0387161162000a00576001600160a01b03821615620009c7576006546040516366e305fd60e01b8152336004820152936001600160a01b039091169290602085602481875afa948515620008225760009562000983575b506001600160a01b03831662000929575b6000936001549562000889575b50612710620005336200052960a43560843562000fbc565b6002549062000fbc565b048501808611620008735734106200082e5760405180612eb081011067ffffffffffffffff612eb0830111176200080c57612eb062000ff882396101a0612eb082015280620005dd620005c6620005af8d620005986101a0612eb08701018d62000fd0565b90612eb0860182036020612eb08801015262000fd0565b612eb0840181036040612eb0860101528b62000fd0565b612eb0830181036060612eb0850101528d62000fd0565b608435612eb08301608081019190915260a43560a08201526001600160601b038c1660c08201526001600160a01b0386811660e08301526101043561010083015261012435610120830152336101408301528716610160820152610184356101809091015203906000f098891562000822576003549a680100000000000000008c10156200080c57620007837faf9d47ce72438601002baccf131ba8f7a4ba6f29f6d1255d30f25af3e22e45ea9962000774620007929460209f8f9097620006b48960016001600160601b039b0160035562000f15565b81546001600160a01b0385811660039390931b92831b921b191617905560405181516020908290620006ea818385880162000ed9565b8101600481520301902060018060a01b0383168a60a01b8254161790557fcd1d03cf8163ac0f1afb7f50fc581a26b256ea2b13744d41ff6f24ddb6f3c80d60405160208152806200074a339560018060a01b031694602083019062000fd0565b0390a3620007656040519c8d6101c090818152019062000fd0565b8c810360208e01529062000fd0565b908a820360408c015262000fd0565b9088820360608a015262000fd0565b608435608088015260a43560a0880152971660c08601526001600160a01b0390811660e08601526101043561010086015261012435610120860152908116610140850152610184356101608501526101808401919091526101a083019190915284169281900390a26040516001600160a01b039091168152f35b634e487b7160e01b600052604160045260246000fd5b6040513d6000823e3d90fd5b60405162461bcd60e51b815260206004820152601760248201527f496e73756666696369656e74206c61756e6368206665650000000000000000006044820152606490fd5b634e487b7160e01b600052601160045260246000fd5b6040805163427d9d4d60e11b8152336004820152929692955090859060249082905afa9384156200082257600094620008e0575b50612710620008cd858362000fbc565b0481039081116200087357938a62000511565b9093506040813d60401162000920575b81620008ff6040938362000e4c565b810103126200012457805160ff811603620001245760200151928a620008bd565b3d9150620008f0565b84620005045760405162461bcd60e51b815260206004820152602660248201527f4e656564207374616b6564204c494c4920666f7220637573746f6d206d696e74604482015265103a37b5b2b760d11b6064820152608490fd5b9094506020813d602011620009be575b81620009a26020938362000e4c565b8101031262000124575180151581036200012457938a620004f3565b3d915062000993565b60405162461bcd60e51b8152602060048201526011602482015270149bde585b1d1e481c9958da5c1a595b9d607a1b6044820152606490fd5b60405162461bcd60e51b815260206004820152601060248201526f0a4def2c2d8e8f240e8dede40d0d2ced60831b6044820152606490fd5b60405162461bcd60e51b81526020600482015260096024820152684e6f20737570706c7960b81b6044820152606490fd5b60405162461bcd60e51b815260206004820152600e60248201526d496e76616c69642077696e646f7760901b6044820152606490fd5b60405162461bcd60e51b815260206004820152600c60248201526b2b30b734ba3c903a30b5b2b760a11b6044820152606490fd5b60405162461bcd60e51b815260206004820152601060248201526f15985b9a5d1e481d1bdbc81cda1bdc9d60821b6044820152606490fd5b3462000124576000366003190112620001245762000b2862000f63565b600080546001600160a01b0319811682556001600160a01b03167f8be0079c531659141344cd1fd0a4f28419497f9722a3daafe3b4186f6b6457e08280a3005b3462000124576020366003190112620001245762000b8562000f63565b600435600155005b34620001245760003660031901126200012457604051806003548083526020809301809160036000527fc2575a0e9e593c00f959f8c92f12db2869c3395a3b0502d05e2516446f71f85b9060005b8682821062000c3f57868662000bf48288038362000e4c565b604051928392818401908285525180915260408401929160005b82811062000c1e57505050500390f35b83516001600160a01b03168552869550938101939281019260010162000c0e565b83546001600160a01b03168552909301926001928301920162000bdb565b34620001245760003660031901126200012457602060405173afd224042abbd3c51b82c9f43b681014c12649ca8152f35b34620001245760003660031901126200012457600054336001600160a01b039182161490811562000dad575b501562000d775747801562000d4557600080808093335af13d1562000d3f573d62000ce58162000e6f565b9062000cf5604051928362000e4c565b8152600060203d92013e5b1562000d0857005b60405162461bcd60e51b815260206004820152600f60248201526e15da5d1a191c985dc819985a5b1959608a1b6044820152606490fd5b62000d00565b60405162461bcd60e51b815260206004820152600a6024820152694e6f2062616c616e636560b01b6044820152606490fd5b60405162461bcd60e51b815260206004820152600e60248201526d139bdd08185d5d1a1bdc9a5e995960921b6044820152606490fd5b90506005541633148162000cba565b346200012457600036600319011262000124576020600254604051908152f35b3462000124576020366003190112620001245760043567ffffffffffffffff8111620001245762000e14602091369060040162000e8c565b8162000e2a604051928381519384920162000ed9565b600490820190815281900382019020546040516001600160a01b039091168152f35b90601f8019910116810190811067ffffffffffffffff8211176200080c57604052565b67ffffffffffffffff81116200080c57601f01601f191660200190565b81601f82011215620001245780359062000ea68262000e6f565b9262000eb6604051948562000e4c565b828452602083830101116200012457816000926020809301838601378301015290565b60005b83811062000eed5750506000910152565b818101518382015260200162000edc565b600435906001600160a01b03821682036200012457565b60035481101562000f4d5760036000527fc2575a0e9e593c00f959f8c92f12db2869c3395a3b0502d05e2516446f71f85b0190600090565b634e487b7160e01b600052603260045260246000fd5b6000546001600160a01b0316330362000f7857565b606460405162461bcd60e51b815260206004820152602060248201527f4f776e61626c653a2063616c6c6572206973206e6f7420746865206f776e65726044820152fd5b818102929181159184041417156200087357565b9060209162000feb8151809281855285808601910162000ed9565b601f01601f191601019056fe608060405234620008265762002eb0803803806200001d816200082b565b9283398101906101a081830312620008265780516001600160401b0381116200082657826200004e91830162000851565b60208201516001600160401b0381116200082657836200007091840162000851565b60408301519092906001600160401b0381116200082657846200009591830162000851565b606082015190946001600160401b0382116200082657620000b891830162000851565b608082015160a083015160c0840151929692906001600160601b03821682036200082657620000ea60e08601620008c3565b906101008601519361012087015195620001086101408901620008c3565b996101806200011b6101608b01620008c3565b9901518a51909a6001600160401b0382116200046a5760005490600182811c921680156200081b575b6020831014620004495781601f849311620007b8575b50602090601f83116001146200073c5760009262000730575b50508160011b916000199060031b1c1916176000555b8051906001600160401b0382116200046a5760015490600182811c9216801562000725575b6020831014620004495781601f849311620006c1575b50602090601f831160011462000647576000926200063b575b50508160011b916000199060031b1c1916176001555b620001fe33620008d8565b6001600b5581156200060a576001600160a01b03841615620005d157858711156200059b578051906001600160401b0382116200046a57600c5490600182811c9216801562000590575b6020831014620004495781601f8493116200051b575b50602090601f83116001146200048c5760009262000480575b50508160011b916000199060031b1c191617600c555b89516001600160401b0381116200046a57600d54600181811c911680156200045f575b60208210146200044957601f8111620003e3575b506020601f82116001146200036f578190620003539c60009262000363575b50508160011b916000199060031b1c191617600d555b600e55600f556001600160601b039190911660609190911b6001600160601b0319161760105560115560125560148054610100600160a81b03191660089290921b610100600160a81b0316919091179055601555620008d8565b60405161254e9081620009228239f35b015190503880620002e3565b600d60005260206000209b60005b601f1984168110620003ca57509b8291620003539d600194601f19811610620003b0575b505050811b01600d55620002f9565b015160001960f88460031b161c19169055388080620003a1565b828201518e556001909d019c602092830192016200037d565b600d6000527fd7b6990105719101dabeb77144f2a3385c8033acd3af97e9423a695e81ad1eb5601f830160051c81016020841062000441575b601f830160051c8201811062000434575050620002c4565b600081556001016200041c565b50806200041c565b634e487b7160e01b600052602260045260246000fd5b90607f1690620002b0565b634e487b7160e01b600052604160045260246000fd5b01519050388062000277565b600c600090815293507fdf6966c971051c3d54ec59162606531493a51404a002842f56009d7e5cf4a8c791905b601f1984168510620004ff576001945083601f19811610620004e5575b505050811b01600c556200028d565b015160001960f88460031b161c19169055388080620004d6565b81810151835560209485019460019093019290910190620004b9565b600c6000529091507fdf6966c971051c3d54ec59162606531493a51404a002842f56009d7e5cf4a8c7601f840160051c8101916020851062000585575b90601f859493920160051c01905b8181106200057557506200025e565b6000815584935060010162000566565b909150819062000558565b91607f169162000248565b60405162461bcd60e51b815260206004820152600e60248201526d496e76616c69642077696e646f7760901b6044820152606490fd5b60405162461bcd60e51b8152602060048201526011602482015270149bde585b1d1e481c9958da5c1a595b9d607a1b6044820152606490fd5b60405162461bcd60e51b81526020600482015260096024820152684e6f20737570706c7960b81b6044820152606490fd5b015190503880620001dd565b6001600090815260008051602062002e908339815191529350601f198516905b818110620006a857509084600195949392106200068e575b505050811b01600155620001f3565b015160001960f88460031b161c191690553880806200067f565b9293602060018192878601518155019501930162000667565b600160005290915060008051602062002e90833981519152601f840160051c810191602085106200071a575b90601f859493920160051c01905b8181106200070a5750620001c4565b60008155849350600101620006fb565b9091508190620006ed565b91607f1691620001ae565b01519050388062000173565b6000808052935060008051602062002e7083398151915291905b601f19841685106200079c576001945083601f1981161062000782575b505050811b0160005562000189565b015160001960f88460031b161c1916905538808062000773565b8181015183556020948501946001909301929091019062000756565b6000805290915060008051602062002e70833981519152601f840160051c8101916020851062000810575b90601f859493920160051c01905b8181106200080057506200015a565b60008155849350600101620007f1565b9091508190620007e3565b91607f169162000144565b600080fd5b6040519190601f01601f191682016001600160401b038111838210176200046a57604052565b919080601f84011215620008265782516001600160401b0381116200046a5760209062000887601f8201601f191683016200082b565b92818452828287010111620008265760005b818110620008af57508260009394955001015290565b858101830151848201840152820162000899565b51906001600160a01b03821682036200082657565b600a80546001600160a01b039283166001600160a01b0319821681179092559091167f8be0079c531659141344cd1fd0a4f28419497f9722a3daafe3b4186f6b6457e0600080a356fe608060408181526004908136101561001657600080fd5b600092833560e01c90816301ffc9a7146119965750806306fdde03146118ee578063081812fc146118ce578063095ea7b31461176057806318160ddd1461174157806323b872dd1461171c578063255e4685146116fd5780632639f4601461159c5780632a55205a1461154f5780632f745c59146114a357806336f8c59a146114765780633ccfd60b14611329578063406046e91461130a57806342842e0e146112d65780634c00de82146112b45780634f02c420146112955780634f6ccce71461120257806355f804b3146110b2578063613f8d6b14610bc157806361e0d834146104fc5780636352211e1461108157806367f68fac14610be05780636817c76c14610bc15780636c0360eb14610b2957806370a0823114610afc578063715018a614610a9f5780638091f3bf14610a7b5780638da5cb5b14610a5257806395d89b411461096f5780639ce93edf14610947578063a22cb4651461087d578063a5097ebf146104c7578063b88d4fde146107ef578063c63adb2b146107c7578063c87b56dd1461051b578063d5abeb01146104fc578063e8a3d485146104c7578063e985e9c514610479578063ea2b4ab214610456578063f2fde38b1461038f5763f4f3b200146101e757600080fd5b3461038b576020908160031936011261038757610202611a7e565b61020a611cd1565b610212612456565b81516370a0823160e01b81523085820152906001600160a01b03908116908483602481855afa92831561037d57879361034a575b50821561031457600a54845163a9059cbb60e01b815291166001600160a01b03168682019081526020810193909352918491839182908990829060400103925af190811561030a5785916102dd575b50156102a457836001600b5580f35b5162461bcd60e51b8152918201526015602482015274115490cc8c081dda5d1a191c985dc819985a5b1959605a1b604482015260649150fd5b6102fd9150833d8511610303575b6102f58183611b16565b81019061242f565b38610295565b503d6102eb565b82513d87823e3d90fd5b835162461bcd60e51b8152808701869052601060248201526f4e6f2045524332302062616c616e636560801b6044820152606490fd5b9092508481813d8311610376575b6103628183611b16565b8101031261037257519138610246565b8680fd5b503d610358565b84513d89823e3d90fd5b8380fd5b8280fd5b50903461038b57602036600319011261038b576103aa611a7e565b906103b3611cd1565b6001600160a01b03918216928315610404575050600a54826001600160601b0360a01b821617600a55167f8be0079c531659141344cd1fd0a4f28419497f9722a3daafe3b4186f6b6457e08380a380f35b906020608492519162461bcd60e51b8352820152602660248201527f4f776e61626c653a206e6577206f776e657220697320746865207a65726f206160448201526564647265737360d01b6064820152fd5b8382346104755781600319360112610475576020906012549051908152f35b5080fd5b83823461047557806003193601126104755760ff81602093610499611a7e565b6104a1611a99565b6001600160a01b0391821683526005875283832091168252855220549151911615158152f35b8382346104755781600319360112610475576104f8906104e5611c13565b9051918291602083526020830190611a59565b0390f35b838234610475578160031936011261047557602090600e549051908152f35b503461038b57602091826003193601126103875780356000818152600260205260409020549094906001600160a01b03161561079157849181907a184f03e93ff9f4daa797ed6e38ed64bf6a1f0100000000000000008481811015610784575b5050856d04ee2d6d415b85acef810000000080861015610775575b5050662386f26fc1000080851015610766575b506305f5e10080851015610757575b506127108085101561074b575b5050606483101561073d575b600a80931015610735575b600192838201968460216106076105f28b611b38565b9a6105ff8a519c8d611b16565b808c52611b38565b8a8a019590601f19013687378a0101905b610706575b505050835195869383600c549161063383611bd9565b928982821691826000146106e1575050600114610692575b5050509282610683936106686005946104f8989751938491611a36565b0164173539b7b760d91b815203601a19810187520185611b16565b51928284938452830190611a59565b8897969550600c82526000805160206124f98339815191525b8383106106c95750959694955050840190920191818161066861064b565b8054838c018a015289988b97509092019181016106ab565b60ff1916818a015284151590940288019093019550849250839150610668905061064b565b600019019082906f181899199a1a9b1b9c1cb0b131b232b360811b8282061a835304908582610618575061061d565b6001016105dc565b9160646002910492016105d1565b909304920138806105c5565b600891929404930190386105b8565b601091929404930190386105a9565b90919294049301908538610596565b049350849150388061057b565b5082606492519162461bcd60e51b835282015260116024820152702737b732bc34b9ba32b73a103a37b5b2b760791b6044820152fd5b8382346104755781600319360112610475576020906001600160601b03601054169051908152f35b5050346104755760803660031901126104755761080a611a7e565b90610813611a99565b916044356064359367ffffffffffffffff851161087957366023860112156108795761084e6108719486602461087698369301359101611b54565b9261086161085c8433611f26565b611e4d565b61086c838383611fee565b612351565b611f02565b80f35b8580fd5b503461038b578060031936011261038b57610896611a7e565b9061089f611bca565b6001600160a01b0390921692338414610905575033845260056020528084208385526020528084209115159160ff1981541660ff8416179055519081527f17307eab39ab6107e8899845ad3d59bd9653f200f220920489ca2b5937696c3160203392a380f35b6020606492519162461bcd60e51b8352820152601960248201527f4552433732313a20617070726f766520746f2063616c6c6572000000000000006044820152fd5b50823461096c578060031936011261096c575060115460125482519182526020820152f35b80fd5b83823461047557816003193601126104755780519082600180549161099383611bd9565b80865292828116908115610a2a57506001146109ce575b5050506109bc826104f8940383611b16565b51918291602083526020830190611a59565b94508085527fb10e2d527612073b26eecdfd717e6a320cf44b4afac2b0732d9fcbe2b7fa0cf65b828610610a12575050506109bc8260206104f895820101946109aa565b805460208787018101919091529095019481016109f5565b6104f89750869350602092506109bc94915060ff191682840152151560051b820101946109aa565b838234610475578160031936011261047557600a5490516001600160a01b039091168152602090f35b83823461047557816003193601126104755760209060ff6014541690519015158152f35b833461096c578060031936011261096c57610ab8611cd1565b600a80546001600160a01b0319811690915581906001600160a01b03167f8be0079c531659141344cd1fd0a4f28419497f9722a3daafe3b4186f6b6457e08280a380f35b83823461047557602036600319011261047557602090610b22610b1d611a7e565b611d29565b9051908152f35b83823461047557816003193601126104755780519082600c54610b4b81611bd9565b80855291600191808316908115610a2a5750600114610b76575050506109bc826104f8940383611b16565b9450600c85526000805160206124f98339815191525b828610610ba9575050506109bc8260206104f895820101946109aa565b80546020878701810191909152909501948101610b8c565b838234610475578160031936011261047557602090600f549051908152f35b508060031936011261038b578135610bf6611bca565b90610bff612456565b601190815442101580611075575b1561103d57801561100c576013928354828101809111610ffa57600e5410610fc65715610f745760145460081c6001600160a01b03168015610f385734610efd57602087916064610c608560155461241c565b885194859384926323b872dd60e01b8452338d85015230602485015260448401525af1908115610ef3578791610ed5575b5015610e9a57925b331590865b858110610cae57876001600b5580f35b8454600193848201809211610e8857835190610cc982611ae4565b8a8252610e4557600082815260026020526040902054610cf5906001600160a01b031615155b156124ac565b8960088054908483528187602094600986522055600160401b821015610e3257926002610df793868f610d5382610d3a888f9b610e2d9e9d9c6108719b0190556123cf565b90919082549060031b91821b91600019901b1916179055565b809b610d5e33611d29565b338352600685528c832081845285528c8320849055838352600785528c832055600083815260026020526040902054610da1906001600160a01b03161515610cef565b338252600384528b82209081540190555252868d20336001600160601b0360a01b825416179055838d33907fddf252ad1be2c89b69c2b068fc378daa952ba7f163c4a11628f55a4df523b3ef8180a48333612260565b337f0f6798a560793a54c3bcfe86a93cde1e73087d944c0ea20544137d41213968858b80a3610e268654612447565b8655612447565b610c9e565b634e487b7160e01b8d5260418c5260248dfd5b835162461bcd60e51b81526020818b0181905260248201527f4552433732313a206d696e7420746f20746865207a65726f20616464726573736044820152606490fd5b634e487b7160e01b8a5285895260248afd5b835162461bcd60e51b81526020818701526015602482015274115490cc8c081d1c985b9cd9995c8819985a5b1959605a1b6044820152606490fd5b610eed915060203d8111610303576102f58183611b16565b38610c91565b85513d89823e3d90fd5b845162461bcd60e51b81526020818801526015602482015274139bc811551208199bdc88115490cc8c081b5a5b9d605a1b6044820152606490fd5b845162461bcd60e51b81526020818801526016602482015275115490cc8c081b5a5b9d081b9bdd08195b98589b195960521b6044820152606490fd5b610f8081600f5461241c565b3410610f8c5792610c99565b835162461bcd60e51b81526020818701526014602482015273125b9cdd59999a58da595b9d081c185e5b595b9d60621b6044820152606490fd5b845162461bcd60e51b8152602081880152600e60248201526d4578636565647320737570706c7960901b6044820152606490fd5b634e487b7160e01b8852838752602488fd5b835162461bcd60e51b8152602081870152600b60248201526a16995c9bc8185b5bdd5b9d60aa1b6044820152606490fd5b835162461bcd60e51b815260208187015260126024820152714e6f7420696e206d696e742077696e646f7760701b6044820152606490fd5b50601254421115610c0d565b50823461096c57602036600319011261096c57506110a160209235611dec565b90516001600160a01b039091168152f35b82843461096c576110c236611b8b565b916110cb611cd1565b82519067ffffffffffffffff82116111ef57506110e9600c54611bd9565b601f811161119e575b50602080601f831160011461112f57508293829392611124575b50508160011b916000199060031b1c191617600c5580f35b01519050838061110c565b600c8452601f198316946000805160206124f9833981519152929185905b87821061118657505083600195961061116d575b505050811b01600c5580f35b015160001960f88460031b161c19169055838080611161565b8060018596829496860151815501950193019061114d565b600c83526000805160206124f9833981519152601f830160051c810191602084106111e5575b601f0160051c01905b8181106111da57506110f2565b8381556001016111cd565b90915081906111c4565b634e487b7160e01b835260419052602482fd5b50913461096c57602036600319011261096c575080359060085482101561123d5760208361122f846123cf565b91905490519160031b1c8152f35b608490602084519162461bcd60e51b8352820152602c60248201527f455243373231456e756d657261626c653a20676c6f62616c20696e646578206f60448201526b7574206f6620626f756e647360a01b6064820152fd5b8382346104755781600319360112610475576020906013549051908152f35b83823461047557816003193601126104755760209060105460601c9051908152f35b83823461047557610871610876916112ed36611aaf565b919251926112fa84611ae4565b86845261086161085c8433611f26565b8382346104755781600319360112610475576020906015549051908152f35b50903461038b578260031936011261038b57611343611cd1565b61134b612456565b601354600a810290808204600a149015171561146357600e541161143057479081156114005760018060a01b0390848080808686600a54165af161138d612230565b50156113cb57507f884edad9ce6fa2440d8a54cc123490eb96d2768479d49ff9c7366125a942436491602091600a54169351908152a26001600b5580f35b606490602085519162461bcd60e51b8352820152600f60248201526e15da5d1a191c985dc819985a5b1959608a1b6044820152fd5b606490602084519162461bcd60e51b8352820152600a6024820152694e6f2062616c616e636560b01b6044820152fd5b6020606492519162461bcd60e51b8352820152600e60248201526d0c4c09481b9bdd081b5a5b9d195960921b6044820152fd5b634e487b7160e01b845260118252602484fd5b838234610475578160031936011261047557601454905160089190911c6001600160a01b03168152602090f35b50823461096c578160031936011261096c576114bd611a7e565b602435906114ca81611d29565b8210156114f8576001600160a01b031682526006602090815283832091835290815290829020548251908152f35b835162461bcd60e51b8152602081870152602b60248201527f455243373231456e756d657261626c653a206f776e657220696e646578206f7560448201526a74206f6620626f756e647360a81b6064820152608490fd5b50823461096c578160031936011261096c57506010546104f86127106115806001600160601b03841660243561241c565b935160609390931c835290920460208201529081906040820190565b82843461096c576115ac36611b8b565b916115b5611cd1565b82519067ffffffffffffffff82116111ef57506115d3600d54611bd9565b601f811161169a575b50602080601f83116001146116195750829382939261160e575b50508160011b916000199060031b1c191617600d5580f35b0151905083806115f6565b600d8452601f198316947fd7b6990105719101dabeb77144f2a3385c8033acd3af97e9423a695e81ad1eb5929185905b878210611682575050836001959610611669575b505050811b01600d5580f35b015160001960f88460031b161c1916905583808061165d565b80600185968294968601518155019501930190611649565b600d83527fd7b6990105719101dabeb77144f2a3385c8033acd3af97e9423a695e81ad1eb5601f830160051c810191602084106116f3575b601f0160051c01905b8181106116e857506115dc565b8381556001016116db565b90915081906116d2565b8382346104755781600319360112610475576020906011549051908152f35b833461096c5761087661172e36611aaf565b9161173c61085c8433611f26565b611fee565b8382346104755781600319360112610475576020906008549051908152f35b50903461038b578160031936011261038b5761177a611a7e565b6024359290916001600160a01b039190828061179587611dec565b1694169380851461188157803314908115611862575b50156117fa57848652602052842080546001600160a01b031916831790556117d283611dec565b167f8c5be1e5ebec7d5bd14f71427d1e84f3dd0314c0f7b2291e5b200ac8c7c3b9258480a480f35b6020608492519162461bcd60e51b8352820152603d60248201527f4552433732313a20617070726f76652063616c6c6572206973206e6f7420746f60448201527f6b656e206f776e6572206f7220617070726f76656420666f7220616c6c0000006064820152fd5b90508652600560205281862033875260205260ff8287205416386117ab565b506020608492519162461bcd60e51b8352820152602160248201527f4552433732313a20617070726f76616c20746f2063757272656e74206f776e656044820152603960f91b6064820152fd5b50823461096c57602036600319011261096c57506110a160209235611e0f565b83823461047557816003193601126104755780519082805461190f81611bd9565b80855291600191808316908115610a2a575060011461193a575050506109bc826104f8940383611b16565b80809650527f290decd9548b62a8d60345a988386fc84ba6bc95484008f6362f93160ef3e5635b82861061197e575050506109bc8260206104f895820101946109aa565b80546020878701810191909152909501948101611961565b8490843461038b57602036600319011261038b573563ffffffff60e01b811680910361038b576020925063152a902d60e11b81149081156119d9575b5015158152f35b63780e9d6360e01b8114915081156119f3575b50836119d2565b6380ac58cd60e01b811491508115611a25575b8115611a14575b50836119ec565b6301ffc9a760e01b14905083611a0d565b635b5e139f60e01b81149150611a06565b60005b838110611a495750506000910152565b8181015183820152602001611a39565b90602091611a7281518092818552858086019101611a36565b601f01601f1916010190565b600435906001600160a01b0382168203611a9457565b600080fd5b602435906001600160a01b0382168203611a9457565b6060906003190112611a94576001600160a01b03906004358281168103611a9457916024359081168103611a94579060443590565b6020810190811067ffffffffffffffff821117611b0057604052565b634e487b7160e01b600052604160045260246000fd5b90601f8019910116810190811067ffffffffffffffff821117611b0057604052565b67ffffffffffffffff8111611b0057601f01601f191660200190565b929192611b6082611b38565b91611b6e6040519384611b16565b829481845281830111611a94578281602093846000960137010152565b6020600319820112611a94576004359067ffffffffffffffff8211611a945780602383011215611a9457816024611bc793600401359101611b54565b90565b602435908115158203611a9457565b90600182811c92168015611c09575b6020831014611bf357565b634e487b7160e01b600052602260045260246000fd5b91607f1691611be8565b60405190600082600d5491611c2783611bd9565b80835292600190818116908115611caf5750600114611c50575b50611c4e92500383611b16565b565b600d600090815291507fd7b6990105719101dabeb77144f2a3385c8033acd3af97e9423a695e81ad1eb55b848310611c945750611c4e935050810160200138611c41565b81935090816020925483858a01015201910190918592611c7b565b905060209250611c4e94915060ff191682840152151560051b82010138611c41565b600a546001600160a01b03163303611ce557565b606460405162461bcd60e51b815260206004820152602060248201527f4f776e61626c653a2063616c6c6572206973206e6f7420746865206f776e65726044820152fd5b6001600160a01b03168015611d4957600052600360205260406000205490565b60405162461bcd60e51b815260206004820152602960248201527f4552433732313a2061646472657373207a65726f206973206e6f7420612076616044820152683634b21037bbb732b960b91b6064820152608490fd5b15611da757565b60405162461bcd60e51b815260206004820152601860248201527f4552433732313a20696e76616c696420746f6b656e20494400000000000000006044820152606490fd5b6000908152600260205260409020546001600160a01b0316611bc7811515611da0565b600081815260026020526040902054611e32906001600160a01b03161515611da0565b6000908152600460205260409020546001600160a01b031690565b15611e5457565b60405162461bcd60e51b815260206004820152602d60248201527f4552433732313a2063616c6c6572206973206e6f7420746f6b656e206f776e6560448201526c1c881bdc88185c1c1c9bdd9959609a1b6064820152608490fd5b60809060208152603260208201527f4552433732313a207472616e7366657220746f206e6f6e20455243373231526560408201527131b2b4bb32b91034b6b83632b6b2b73a32b960711b60608201520190565b15611f0957565b60405162461bcd60e51b815280611f2260048201611eaf565b0390fd5b906001600160a01b038080611f3a84611dec565b16931691838314938415611f6d575b508315611f57575b50505090565b611f6391929350611e0f565b1614388080611f51565b909350600052600560205260406000208260005260205260ff604060002054169238611f49565b15611f9b57565b60405162461bcd60e51b815260206004820152602560248201527f4552433732313a207472616e736665722066726f6d20696e636f72726563742060448201526437bbb732b960d91b6064820152608490fd5b61201291611ffb84611dec565b6001600160a01b0393848416939185168414611f94565b8382169384156121df57839182612126575090506008549085600052600960205281604060002055600160401b821015611b00576120789261205f87610d3a8560018997016008556123cf565b8286036120f3575b5061207186611dec565b1614611f94565b7fddf252ad1be2c89b69c2b068fc378daa952ba7f163c4a11628f55a4df523b3ef60008481526004602052604081206001600160601b0360a01b9081815416905583825260036020526040822060001981540190558482526040822060018154019055858252600260205284604083209182541617905580a4565b6120fc90611d29565b60406000878152600660205281812083825260205288828220558881526007602052205538612067565b858303612138575b506120789261205f565b612143919250611d29565b6000198101919082116121c9576120789284926000908882526020906007825260409182842054828103612192575b508a8452838381205586845260068152828420918452528120559261212e565b8785526006825283852083865282528385205488865260068352848620828752835280858720558552600782528385205538612172565b634e487b7160e01b600052601160045260246000fd5b60405162461bcd60e51b8152602060048201526024808201527f4552433732313a207472616e7366657220746f20746865207a65726f206164646044820152637265737360e01b6064820152608490fd5b3d1561225b573d9061224182611b38565b9161224f6040519384611b16565b82523d6000602084013e565b606090565b909190803b15612349576020604051809281630a85bd0160e11b96878252336004830152816122a960009889938460248501526044840152608060648401526084830190611a59565b03926001600160a01b03165af190829082612301575b50506122f3576122cd612230565b805190816122ee5760405162461bcd60e51b815280611f2260048201611eaf565b602001fd5b6001600160e01b0319161490565b909192506020813d8211612341575b8161231d60209383611b16565b810103126104755751906001600160e01b03198216820361096c57509038806122bf565b3d9150612310565b505050600190565b919290803b156123c657604051630a85bd0160e11b8082523360048301526001600160a01b039485166024830152604482019590955260806064820152916020918391829081906123a6906084830190611a59565b03916000968791165af1908290826123015750506122f3576122cd612230565b50505050600190565b6008548110156124065760086000527ff3f7a9fe364faab93b216da50a3214154f22a0a2b415b23a84c8169e8b636ee30190600090565b634e487b7160e01b600052603260045260246000fd5b818102929181159184041417156121c957565b90816020910312611a9457518015158103611a945790565b60001981146121c95760010190565b6002600b5414612467576002600b55565b60405162461bcd60e51b815260206004820152601f60248201527f5265656e7472616e637947756172643a207265656e7472616e742063616c6c006044820152606490fd5b156124b357565b60405162461bcd60e51b815260206004820152601c60248201527f4552433732313a20746f6b656e20616c7265616479206d696e746564000000006044820152606490fdfedf6966c971051c3d54ec59162606531493a51404a002842f56009d7e5cf4a8c7a26469706673582212202d4966fdacb4b2ce99d090b237dae1acb2be86ca2c7b043954885cd6d9d6a6b164736f6c63430008140033290decd9548b62a8d60345a988386fc84ba6bc95484008f6362f93160ef3e563b10e2d527612073b26eecdfd717e6a320cf44b4afac2b0732d9fcbe2b7fa0cf6a2646970667358221220c8445cf86ff93c9232c5e3a02dc00de84a050487af9836252deabd32cdb1512a64736f6c63430008140033",
  "linkReferences": {},
  "deployedLinkReferences": {}
}