{
  "_format": "hh-sol-artifact-1",
  "contractName": "LiliPadStaking",
  "sourceName": "contracts/LiliPadStaking.sol",
  "abi": [
    {
      "inputs": [
        {
          "internalType": "address",
          "name": "_liliToken",
          "type": "address"
        }
      ],
      "stateMutability": "nonpayable",
      "type": "constructor"
    },
    {
      "anonymous": false,
      "inputs": [
        {
          "indexed": true,
          "internalType": "address",
          "name": "previousOwner",
          "type": "address"
        },
        {
          "indexed": true,
          "internalType": "address",
          "name": "newOwner",
          "type": "address"
        }
      ],
      "name": "OwnershipTransferred",
      "type": "event"
    },
    {
      "anonymous": false,
      "inputs": [
        {
          "indexed": true,
          "internalType": "address",
          "name": "user",
          "type": "address"
        },
        {
          "indexed": false,
          "internalType": "uint256",
          "name": "amount",
          "type": "uint256"
        },
        {
          "indexed": false,
          "internalType": "enum LiliPadStaking.Tier",
          "name": "tier",
          "type": "uint8"
        },
        {
          "indexed": false,
          "internalType": "uint256",
          "name": "unlockTime",
          "type": "uint256"
        },
        {
          "indexed": false,
          "internalType": "uint256",
          "name": "stakeTime",
          "type": "uint256"
        }
      ],
      "name": "Staked",
      "type": "event"
    },
    {
      "anonymous": false,
      "inputs": [
        {
          "indexed": true,
          "internalType": "address",
          "name": "user",
          "type": "address"
        },
        {
          "indexed": false,
          "internalType": "uint256",
          "name": "amount",
          "type": "uint256"
        },
        {
          "indexed": false,
          "internalType": "enum LiliPadStaking.Tier",
          "name": "tier",
          "type": "uint8"
        },
        {
          "indexed": false,
          "internalType": "uint256",
          "name": "unstakeTime",
          "type": "uint256"
        }
      ],
      "name": "Unstaked",
      "type": "event"
    },
    {
      "inputs": [],
      "name": "GUARDIAN_AMOUNT",
      "outputs": [
        {
          "internalType": "uint256",
          "name": "",
          "type": "uint256"
        }
      ],
      "stateMutability": "view",
      "type": "function"
    },
    {
      "inputs": [],
      "name": "GUARDIAN_DAYS",
      "outputs": [
        {
          "internalType": "uint256",
          "name": "",
          "type": "uint256"
        }
      ],
      "stateMutability": "view",
      "type": "function"
    },
    {
      "inputs": [],
      "name": "GUARDIAN_DISCOUNT",
      "outputs": [
        {
          "internalType": "uint256",
          "name": "",
          "type": "uint256"
        }
      ],
      "stateMutability": "view",
      "type": "function"
    },
    {
      "inputs": [],
      "name": "HOPPER_AMOUNT",
      "outputs": [
        {
          "internalType": "uint256",
          "name": "",
          "type": "uint256"
        }
      ],
      "stateMutability": "view",
      "type": "function"
    },
    {
      "inputs": [],
      "name": "HOPPER_DAYS",
      "outputs": [
        {
          "internalType": "uint256",
          "name": "",
          "type": "uint256"
        }
      ],
      "stateMutability": "view",
      "type": "function"
    },
    {
      "inputs": [],
      "name": "HOPPER_DISCOUNT",
      "outputs": [
        {
          "internalType": "uint256",
          "name": "",
          "type": "uint256"
        }
      ],
      "stateMutability": "view",
      "type": "function"
    },
    {
      "inputs": [],
      "name": "SPROUT_AMOUNT",
      "outputs": [
        {
          "internalType": "uint256",
          "name": "",
          "type": "uint256"
        }
      ],
      "stateMutability": "view",
      "type": "function"
    },
    {
      "inputs": [],
      "name": "SPROUT_DAYS",
      "outputs": [
        {
          "internalType": "uint256",
          "name": "",
          "type": "uint256"
        }
      ],
      "stateMutability": "view",
      "type": "function"
    },
    {
      "inputs": [],
      "name": "SPROUT_DISCOUNT",
      "outputs": [
        {
          "internalType": "uint256",
          "name": "",
          "type": "uint256"
        }
      ],
      "stateMutability": "view",
      "type": "function"
    },
    {
      "inputs": [
        {
          "internalType": "address",
          "name": "",
          "type": "address"
        },
        {
          "internalType": "enum LiliPadStaking.Tier",
          "name": "",
          "type": "uint8"
        }
      ],
      "name": "activeStakes",
      "outputs": [
        {
          "internalType": "uint256",
          "name": "amount",
          "type": "uint256"
        },
        {
          "internalType": "uint256",
          "name": "unlockTime",
          "type": "uint256"
        },
        {
          "internalType": "enum LiliPadStaking.Tier",
          "name": "tier",
          "type": "uint8"
        },
        {
          "internalType": "bool",
          "name": "active",
          "type": "bool"
        },
        {
          "internalType": "uint256",
          "name": "stakeTime",
          "type": "uint256"
        }
      ],
      "stateMutability": "view",
      "type": "function"
    },
    {
      "inputs": [
        {
          "internalType": "address",
          "name": "user",
          "type": "address"
        }
      ],
      "name": "getActiveStakes",
      "outputs": [
        {
          "components": [
            {
              "internalType": "uint256",
              "name": "amount",
              "type": "uint256"
            },
            {
              "internalType": "uint256",
              "name": "unlockTime",
              "type": "uint256"
            },
            {
              "internalType": "enum LiliPadStaking.Tier",
              "name": "tier",
              "type": "uint8"
            },
            {
              "internalType": "bool",
              "name": "active",
              "type": "bool"
            },
            {
              "internalType": "uint256",
              "name": "stakeTime",
              "type": "uint256"
            }
          ],
          "internalType": "struct LiliPadStaking.StakeInfo[]",
          "name": "",
          "type": "tuple[]"
        }
      ],
      "stateMutability": "view",
      "type": "function"
    },
    {
      "inputs": [
        {
          "internalType": "address",
          "name": "user",
          "type": "address"
        }
      ],
      "name": "getHighestActiveTier",
      "outputs": [
        {
          "internalType": "enum LiliPadStaking.Tier",
          "name": "tier",
          "type": "uint8"
        },
        {
          "internalType": "uint256",
          "name": "unlockTime",
          "type": "uint256"
        }
      ],
      "stateMutability": "view",
      "type": "function"
    },
    {
      "inputs": [
        {
          "internalType": "address",
          "name": "user",
          "type": "address"
        }
      ],
      "name": "getStakeHistory",
      "outputs": [
        {
          "components": [
            {
              "internalType": "uint256",
              "name": "amount",
              "type": "uint256"
            },
            {
              "internalType": "uint256",
              "name": "unlockTime",
              "type": "uint256"
            },
            {
              "internalType": "enum LiliPadStaking.Tier",
              "name": "tier",
              "type": "uint8"
            },
            {
              "internalType": "uint256",
              "name": "stakeTime",
              "type": "uint256"
            },
            {
              "internalType": "uint256",
              "name": "unstakeTime",
              "type": "uint256"
            },
            {
              "internalType": "bool",
              "name": "wasActive",
              "type": "bool"
            }
          ],
          "internalType": "struct LiliPadStaking.StakeHistory[]",
          "name": "",
          "type": "tuple[]"
        }
      ],
      "stateMutability": "view",
      "type": "function"
    },
    {
      "inputs": [
        {
          "internalType": "address",
          "name": "user",
          "type": "address"
        }
      ],
      "name": "getStakeHistoryCount",
      "outputs": [
        {
          "internalType": "uint256",
          "name": "",
          "type": "uint256"
        }
      ],
      "stateMutability": "view",
      "type": "function"
    },
    {
      "inputs": [
        {
          "internalType": "address",
          "name": "user",
          "type": "address"
        }
      ],
      "name": "getUserDiscount",
      "outputs": [
        {
          "internalType": "enum LiliPadStaking.Tier",
          "name": "tier",
          "type": "uint8"
        },
        {
          "internalType": "uint256",
          "name": "discountBps",
          "type": "uint256"
        }
      ],
      "stateMutability": "view",
      "type": "function"
    },
    {
      "inputs": [
        {
          "internalType": "address",
          "name": "user",
          "type": "address"
        }
      ],
      "name": "getUserTier",
      "outputs": [
        {
          "internalType": "enum LiliPadStaking.Tier",
          "name": "tier",
          "type": "uint8"
        },
        {
          "internalType": "bool",
          "name": "eligible",
          "type": "bool"
        }
      ],
      "stateMutability": "view",
      "type": "function"
    },
    {
      "inputs": [
        {
          "internalType": "address",
          "name": "user",
          "type": "address"
        }
      ],
      "name": "isEligible",
      "outputs": [
        {
          "internalType": "bool",
          "name": "",
          "type": "bool"
        }
      ],
      "stateMutability": "view",
      "type": "function"
    },
    {
      "inputs": [],
      "name": "liliToken",
      "outputs": [
        {
          "internalType": "contract IERC20",
          "name": "",
          "type": "address"
        }
      ],
      "stateMutability": "view",
      "type": "function"
    },
    {
      "inputs": [],
      "name": "owner",
      "outputs": [
        {
          "internalType": "address",
          "name": "",
          "type": "address"
        }
      ],
      "stateMutability": "view",
      "type": "function"
    },
    {
      "inputs": [],
      "name": "renounceOwnership",
      "outputs": [],
      "stateMutability": "nonpayable",
      "type": "function"
    },
    {
      "inputs": [
        {
          "internalType": "enum LiliPadStaking.Tier",
          "name": "tier",
          "type": "uint8"
        }
      ],
      "name": "stake",
      "outputs": [],
      "stateMutability": "nonpayable",
      "type": "function"
    },
    {
      "inputs": [
        {
          "internalType": "address",
          "name": "",
          "type": "address"
        },
        {
          "internalType": "uint256",
          "name": "",
          "type": "uint256"
        }
      ],
      "name": "stakeHistory",
      "outputs": [
        {
          "internalType": "uint256",
          "name": "amount",
          "type": "uint256"
        },
        {
          "internalType": "uint256",
          "name": "unlockTime",
          "type": "uint256"
        },
        {
          "internalType": "enum LiliPadStaking.Tier",
          "name": "tier",
          "type": "uint8"
        },
        {
          "internalType": "uint256",
          "name": "stakeTime",
          "type": "uint256"
        },
        {
          "internalType": "uint256",
          "name": "unstakeTime",
          "type": "uint256"
        },
        {
          "internalType": "bool",
          "name": "wasActive",
          "type": "bool"
        }
      ],
      "stateMutability": "view",
      "type": "function"
    },
    {
      "inputs": [
        {
          "internalType": "address",
          "name": "",
          "type": "address"
        }
      ],
      "name": "totalStaked",
      "outputs": [
        {
          "internalType": "uint256",
          "name": "",
          "type": "uint256"
        }
      ],
      "stateMutability": "view",
      "type": "function"
    },
    {
      "inputs": [
        {
          "internalType": "address",
          "name": "newOwner",
          "type": "address"
        }
      ],
      "name": "transferOwnership",
      "outputs": [],
      "stateMutability": "nonpayable",
      "type": "function"
    },
    {
      "inputs": [
        {
          "internalType": "enum LiliPadStaking.Tier",
          "name": "tier",
          "type": "uint8"
        }
      ],
      "name": "unstake",
      "outputs": [],
      "stateMutability": "nonpayable",
      "type": "function"
    }
  ],
  "bytecode": "0x60a0346100f257601f61166538819003918201601f19168301916001600160401b038311848410176100f7578084926020946040528339810103126100f257516001600160a01b03808216918290036100f2576000543360018060a01b0319821617600055604051913391167f8be0079c531659141344cd1fd0a4f28419497f9722a3daafe3b4186f6b6457e0600080a381156100c05750608052604051611557908161010e82396080518181816106d701528181610a2e0152610d4b0152f35b62461bcd60e51b815260206004820152600d60248201526c24b73b30b634b2103a37b5b2b760991b6044820152606490fd5b600080fd5b634e487b7160e01b600052604160045260246000fdfe6080604081815260048036101561001557600080fd5b600092833560e01c9081630d4ee35d146110f2575080631747e0b014610db25780631a15ea3d14610d7a5780631d110c3d14610d365780633c60e4ee14610cb2578063432ea67b14610c8d578063604f2177146109a457806366e305fd1461095c578063715018a61461090257806371b2844b146108dd57806377f7eb42146108c057806384fb3a9a1461089c57806387a02172146105645780638da5cb5b1461053c5780639bfd8d61146105045780639c1b0cc3146104e7578063a59c0606146104b5578063a9b66fdb1461036c578063b33e20fe1461034f578063b63b5de11461032a578063b66d825214610295578063c6bf580a14610277578063e4d2620e1461021c578063ed730045146101fb5763f2fde38b1461013657600080fd5b346101f75760203660031901126101f75761014f61110f565b90610158611197565b6001600160a01b039182169283156101a557505082546001600160a01b0319811683178455167f8be0079c531659141344cd1fd0a4f28419497f9722a3daafe3b4186f6b6457e08380a380f35b906020608492519162461bcd60e51b8352820152602660248201527f4f776e61626c653a206e6577206f776e657220697320746865207a65726f206160448201526564647265737360d01b6064820152fd5b8280fd5b50503461021857816003193601126102185760209051610fa08152f35b5080fd5b5082346102745760203660031901126102745761023f61023a61110f565b611353565b509180831015610261575050815190610258828261112a565b15156020820152f35b634e487b7160e01b825260219052602490fd5b80fd5b50503461021857816003193601126102185760209051624f1a008152f35b5090346101f757806003193601126101f7576102af61110f565b6001600160a01b03168352600260205280832080546024359490851015610274575060c0936102dd91611165565b5080549261031760018301549360ff6002850154169060ff600560038701549587015496015416958151978852602088015286019061112a565b60608401526080830152151560a0820152f35b5050346102185781600319360112610218576020905169043c33c19375648000008152f35b5050346102185781600319360112610218576020905161012c8152f35b50829034610218576020806003193601126101f757916001600160a01b0361039261110f565b168152600291828452848220928354906103ab826114e8565b926103b888519485611278565b82845286840191829686528786209186935b85851061044c57505050505050845193808501918186525180925285850193925b8281106103f85785850386f35b909192938260c060019287518051825283810151848301526104208b8201518c84019061112a565b606081810151908301526080808201519083015260a090810151151590820152019501939291016103eb565b60068a6001928d809d9a9b9d51906104638261125c565b88548252858901548483015261048360ff91828a8c0154169084016112d5565b60038901546060830152868901546080830152600589015416151560a0820152815201940194019392989695986103ca565b82843461027457602036600319011261027457506104d461023a61110f565b6104e08351809361112a565b6020820152f35b50503461021857816003193601126102185760209051610d058152f35b5050346102185760203660031901126102185760209181906001600160a01b0361052c61110f565b1681526003845220549051908152f35b505034610218578160031936011261021857905490516001600160a01b039091168152602090f35b5090346101f75760208060031936011261089857823590838210156108945761058e8215156111ef565b3385526001938482526105a38385882061114d565b9460028601549560ff8760081c161561085157818101549687421061081957815497338a52600286526003888b209301548851926105e08461125c565b8a84528784019283526105f960ff8b86019216826112d5565b60608401918252608084019242845260a0850195878752805490680100000000000000008210156108065790610633918982018155611165565b9590956107f457518555518685015551868110156107e15792600394926005926106628e9896600285016112e1565b51868301555187820155019051151560ff80198354169116179055338352808552826106908789832061114d565b918183558201558260028201550155338652600382528386208054908682039182116107ce5755835163a9059cbb60e01b815233828201526024810186905282816044818a7f00000000000000000000000000000000000000000000000000000000000000006001600160a01b03165af19081156107c4578791610797575b501561075657509061072891835194855284019061112a565b42908201527f2c84cdfc997ae6b070412e57acdc1d0ff57feaa7bb7da4736c2a53aa1b8fcc8060603392a280f35b60649184519162461bcd60e51b8352820152601760248201527f556e7374616b65207472616e73666572206661696c65640000000000000000006044820152fd5b6107b79150833d85116107bd575b6107af8183611278565b81019061129a565b3861070f565b503d6107a5565b85513d89823e3d90fd5b634e487b7160e01b885260118352602488fd5b634e487b7160e01b8c526021875260248cfd5b634e487b7160e01b8e528d895260248efd5b634e487b7160e01b8f5260418a5260248ffd5b865162461bcd60e51b8152808501869052601260248201527114dd185ad9481cdd1a5b1b081b1bd8dad95960721b6044820152606490fd5b855162461bcd60e51b8152808401859052601d60248201527f4e6f20616374697665207374616b6520666f72207468697320746965720000006044820152606490fd5b8480fd5b8380fd5b82843461027457602036600319011261027457506104d46108bb61110f565b6112f9565b505034610218578160031936011261021857602090516117708152f35b5050346102185781600319360112610218576020905169065a4da25d3016c000008152f35b833461027457806003193601126102745761091b611197565b80546001600160a01b03198116825581906001600160a01b03167f8be0079c531659141344cd1fd0a4f28419497f9722a3daafe3b4186f6b6457e08280a380f35b509190346102185760203660031901126102185761097b61023a61110f565b5091838310156109915760208383519015158152f35b634e487b7160e01b815260218452602490fd5b5090346101f7576020908160031936011261089857823583811015610894576109ce8115156111ef565b3385526001835260ff60026109e58385892061114d565b015460081c16610c4b5760018103610bd55769043c33c19375648000009361012c905b83516323b872dd60e01b815233828201523060248201526044810187905285816064818b7f00000000000000000000000000000000000000000000000000000000000000006001600160a01b03165af1908115610bcb578891610bae575b5015610b795784610a7783426112b2565b88865193610a848561122a565b89855283850192835287850192610a9b88856112d5565b610abd888a606089019560018752600160808b0199428b52338352522061114d565b955186555160018601556002850192519080821015610b6657509282600392610aef610b34999896610b2698966112e1565b51151561ff0082549160081b169061ff0019161790555191015533885260038652848820610b1e8882546112b2565b9055426112b2565b93835195865285019061112a565b8201524260608201527f022dd619ee0d92140e5abde105761d6df71c05c4fcb761610ea0552064f91e6c60803392a280f35b634e487b7160e01b8c526021905260248bfd5b835162461bcd60e51b8152908101859052600f60248201526e151c985b9cd9995c8819985a5b1959608a1b6044820152606490fd5b610bc59150863d88116107bd576107af8183611278565b38610a66565b85513d8a823e3d90fd5b60028103610bf35769065a4da25d3016c00000936241eb0090610a08565b60038103610c1157690a968163f0a57b40000093624f1a0090610a08565b815162461bcd60e51b81526020818601818152600c918101919091526b24b73b30b634b2103a34b2b960a11b604082015281906060010390fd5b505162461bcd60e51b815291820152601860248201527f416c7265616479207374616b6564207468697320746965720000000000000000604482015260649150fd5b50503461021857816003193601126102185760209051690a968163f0a57b4000008152f35b50346101f757816003193601126101f757610ccb61110f565b60243591821015610898576001600160a01b0316835260016020529181902060a092610cf69161114d565b9060ff825492610d24600182015493600360028401549301549481519687526020870152850183831661112a565b60081c16151560608301526080820152f35b505034610218578160031936011261021857517f00000000000000000000000000000000000000000000000000000000000000006001600160a01b03168152602090f35b5050346102185760203660031901126102185760209181906001600160a01b03610da261110f565b1681526002845220549051908152f35b828434610274576020918260031936011261021857610dcf61110f565b90829160018060a01b031693848452600194858252828520868652825260ff600280858820015482600891821c166110ea575b83885288855285882082895285528282878a200154821c166110da575b83885288855285882090600391828a5286528383888b200154821c166110ca575b610e49886114e8565b97610e568851998a611278565b808952610e65601f19916114e8565b01868a5b828110611098575050508893858a528a8752878a208b8b5287528084898c200154831c1661102d575b858a528a8752878a20848b5287528084898c200154831c16610fbe575b858a528a8752878a20838b5287528084898c200154831c16610f48575b505050505050929080949294519380850191818652865180935281818701970193905b838210610efc5786880387f35b90919293948360a082998851805182528381015184830152610f24868201518784019061112a565b60608181015115159083015260809081015190820152019896019493920190610eef565b610fb2958a528a8752878a20838b528752878a2091885194610f698661122a565b835486528c8401548987015283015490610f878383168b88016112d5565b1c161515606084015201546080820152610fa1828761150d565b52610fac818661150d565b506114d9565b50858080808080610ecc565b9361102790868b528b8852888b20858c5288528b848a8d208b5192610fe28461122a565b815484528101548b8401528781015489906110018183168f87016112d5565b871c16151560608401520154608082015261101c828c61150d565b52610fac818b61150d565b93610eaf565b93508489528986528689208a8a5286528689208288519161104d8361122a565b805483528c81015489840152868682015461106c8282168d87016112d5565b851c16151560608401520154608082015261108689611500565b5261109088611500565b508993610e92565b89516110a38161122a565b8c81528c838201528c8b8201528c60608201528c608082015282828d010152018790610e69565b966110d4906114d9565b96610e40565b956110e4906114d9565b95610e1f565b889650610e02565b849034610218578160031936011261021857806241eb0060209252f35b600435906001600160a01b038216820361112557565b600080fd5b9060048210156111375752565b634e487b7160e01b600052602160045260246000fd5b90600481101561113757600052602052604060002090565b8054821015611181576000526006602060002091020190600090565b634e487b7160e01b600052603260045260246000fd5b6000546001600160a01b031633036111ab57565b606460405162461bcd60e51b815260206004820152602060248201527f4f776e61626c653a2063616c6c6572206973206e6f7420746865206f776e65726044820152fd5b156111f657565b60405162461bcd60e51b815260206004820152600c60248201526b24b73b30b634b2103a34b2b960a11b6044820152606490fd5b60a0810190811067ffffffffffffffff82111761124657604052565b634e487b7160e01b600052604160045260246000fd5b60c0810190811067ffffffffffffffff82111761124657604052565b90601f8019910116810190811067ffffffffffffffff82111761124657604052565b90816020910312611125575180151581036111255790565b919082018092116112bf57565b634e487b7160e01b600052601160045260246000fd5b60048210156111375752565b9060048110156111375760ff80198354169116179055565b61130290611353565b5090816004811015611137571561134b576004821015611137576001820361132a57610d0590565b6002820361133857610fa090565b600382036113465761177090565b600090565b600091508190565b6001600160a01b03166000818152600160208181526040808420600385528252808420815194969593949293906113898461122a565b8054845285810154908585019182526002810154946080600360ff886113b482809b168a87016112d5565b60081c161515938460608501520154910152806114cf575b6114c157508087528484528187206002885284528187208251906113ef8261122a565b805482528681015491868101928352608060038760028501546114168282168a87016112d5565b60081c161515938460608501520154910152806114b7575b6114a957508652838352808620848752835260806003828820938351936114548561122a565b85548552878601549685019687526114766002870154918383169087016112d5565b60081c1615159384606085015201549101528061149f575b6114985750508190565b9092505190565b508051421061148e565b516002975095945050505050565b508051421061142e565b516003975095945050505050565b50805142106113cc565b60001981146112bf5760010190565b67ffffffffffffffff81116112465760051b60200190565b8051156111815760200190565b80518210156111815760209160051b01019056fea264697066735822122053e9c4424e788b5263c4d566a7b8708920869fc2458b74a4f43111d68f12306f64736f6c63430008140033",
  "linkReferences": {},
  "deployedLinkReferences": {}
}